{
  "contractName": "violation",
  "abi": [
    {
      "inputs": [],
      "stateMutability": "nonpayable",
      "type": "constructor"
    },
    {
      "anonymous": false,
      "inputs": [
        {
          "indexed": false,
          "internalType": "uint256",
          "name": "id",
          "type": "uint256"
        },
        {
          "indexed": false,
          "internalType": "address",
          "name": "violator",
          "type": "address"
        },
        {
          "indexed": false,
          "internalType": "string",
          "name": "violationDetails",
          "type": "string"
        },
        {
          "indexed": false,
          "internalType": "uint256",
          "name": "fineAmount",
          "type": "uint256"
        }
      ],
      "name": "ChallanGenerated",
      "type": "event"
    },
    {
      "anonymous": false,
      "inputs": [
        {
          "indexed": false,
          "internalType": "uint256",
          "name": "id",
          "type": "uint256"
        }
      ],
      "name": "ChallanTerminated",
      "type": "event"
    },
    {
      "anonymous": false,
      "inputs": [
        {
          "indexed": false,
          "internalType": "uint256",
          "name": "id",
          "type": "uint256"
        },
        {
          "indexed": false,
          "internalType": "string",
          "name": "violationDetails",
          "type": "string"
        },
        {
          "indexed": false,
          "internalType": "uint256",
          "name": "fineAmount",
          "type": "uint256"
        }
      ],
      "name": "ChallanUpdated",
      "type": "event"
    },
    {
      "inputs": [],
      "name": "challanCounter",
      "outputs": [
        {
          "internalType": "uint256",
          "name": "",
          "type": "uint256"
        }
      ],
      "stateMutability": "view",
      "type": "function",
      "constant": true
    },
    {
      "inputs": [
        {
          "internalType": "uint256",
          "name": "",
          "type": "uint256"
        }
      ],
      "name": "challans",
      "outputs": [
        {
          "internalType": "uint256",
          "name": "id",
          "type": "uint256"
        },
        {
          "internalType": "address",
          "name": "violator",
          "type": "address"
        },
        {
          "internalType": "string",
          "name": "violationDetails",
          "type": "string"
        },
        {
          "internalType": "uint256",
          "name": "fineAmount",
          "type": "uint256"
        },
        {
          "internalType": "bool",
          "name": "isTerminated",
          "type": "bool"
        }
      ],
      "stateMutability": "view",
      "type": "function",
      "constant": true
    },
    {
      "inputs": [
        {
          "internalType": "string",
          "name": "",
          "type": "string"
        }
      ],
      "name": "violationFines",
      "outputs": [
        {
          "internalType": "uint256",
          "name": "",
          "type": "uint256"
        }
      ],
      "stateMutability": "view",
      "type": "function",
      "constant": true
    },
    {
      "inputs": [
        {
          "internalType": "address",
          "name": "_violator",
          "type": "address"
        },
        {
          "internalType": "string",
          "name": "_violationDetails",
          "type": "string"
        }
      ],
      "name": "generateChallan",
      "outputs": [],
      "stateMutability": "nonpayable",
      "type": "function"
    },
    {
      "inputs": [
        {
          "internalType": "uint256",
          "name": "_id",
          "type": "uint256"
        }
      ],
      "name": "getChallan",
      "outputs": [
        {
          "internalType": "uint256",
          "name": "id",
          "type": "uint256"
        },
        {
          "internalType": "address",
          "name": "violator",
          "type": "address"
        },
        {
          "internalType": "string",
          "name": "violationDetails",
          "type": "string"
        },
        {
          "internalType": "uint256",
          "name": "fineAmount",
          "type": "uint256"
        },
        {
          "internalType": "bool",
          "name": "isTerminated",
          "type": "bool"
        }
      ],
      "stateMutability": "view",
      "type": "function",
      "constant": true
    },
    {
      "inputs": [
        {
          "internalType": "uint256",
          "name": "_id",
          "type": "uint256"
        },
        {
          "internalType": "string",
          "name": "_violationDetails",
          "type": "string"
        }
      ],
      "name": "updateChallan",
      "outputs": [],
      "stateMutability": "nonpayable",
      "type": "function"
    },
    {
      "inputs": [
        {
          "internalType": "uint256",
          "name": "_id",
          "type": "uint256"
        }
      ],
      "name": "terminateChallan",
      "outputs": [],
      "stateMutability": "nonpayable",
      "type": "function"
    }
  ],
  "bytecode": "0x6080806040523461007457602881675370656564696e6760c01b6101f4935260026008820152205560c86027604051665061726b696e6760c81b81526002600782015220556064602b6040516a139bc814d9585d18995b1d60aa1b81526002600b8201522055604051610b48908161007a8239f35b600080fdfe6080604052600436101561001257600080fd5b60003560e01c80635146b42f1461079157806396ab4bab146107345780639c1cfb61146106cc5780639d5f4be7146103dc578063c0dcdd8914610125578063e4f2266d146101075763fef88e971461006957600080fd5b3461010257602036600319011261010257600435801515806100f6575b61008f90610acd565b60001981018181116100e0577fd4c7402b4f900bcb67a96ed6052c481de7c7015122b904145ad8dd766e6c3d4e9160046100ca60209361095a565b5001805460ff19166001179055604051908152a1005b634e487b7160e01b600052601160045260246000fd5b50600154811115610086565b600080fd5b34610102576000366003190112610102576020600154604051908152f35b346101025760403660031901126101025760043567ffffffffffffffff6024358181116101025761015a903690600401610903565b821515806103d0575b61016c90610acd565b600019918383018481116100e0576101839061095a565b509060ff60048301541661037757604051938351916101c16020968781818901966101af81838a610844565b81016002815203019020541515610a88565b60028401918551918211610361576101d983546109a8565b601f811161031b575b5086601f831160011461028757610271947fd88cd3fc9322ccf50df7dec6797866a2d3b8f4c45b92303b1a2c61dc1da54330999794846003989561024a958c9560009261027c575b508260011b928b1b1c19161790555b604051809381928751928391610844565b81016002815203019020549384910155606060405195869586528501526060840190610867565b9060408301520390a1005b89015191508e61022a565b90601f1983169184600052886000209260005b81811061030457509460018561024a958c956102719a957fd88cd3fc9322ccf50df7dec6797866a2d3b8f4c45b92303b1a2c61dc1da543309f9d9a9960039d9a106102ed575b505050811b019055610239565b8a01519060f8848e1b161c191690558d80806102e0565b91938a60018192878d01518155019501920161029a565b8360005287600020601f840160051c810191898510610357575b601f0160051c01905b81811061034b57506101e2565b6000815560010161033e565b9091508190610335565b634e487b7160e01b600052604160045260246000fd5b60405162461bcd60e51b815260206004820152602b60248201527f4368616c6c616e206973207465726d696e6174656420616e642063616e6e6f7460448201526a081899481d5c19185d195960aa1b6064820152608490fd5b50600154831115610163565b34610102576040366003190112610102576004356001600160a01b03811681036101025760243567ffffffffffffffff811161010257610420903690600401610903565b906040519161043d815193602081818501966101af81838a610844565b60015460001981146100e0576020600161046892019485600155604051809381928651928391610844565b810160028152030190205460405193610480856108c5565b8452602084019360018060a01b0384168552604081018381528260608301526000608083015260005468010000000000000000811015610361578060016104ca920160005561095a565b9690966106b65782518755600187019060018060a01b039051166bffffffffffffffffffffffff60a01b8254161790555194855167ffffffffffffffff81116103615761051a60028301546109a8565b601f811161066f575b506020601f82116001146105da5791816004926080947fa489fe610c894fc9981c2e2606f89202188af3ca814a1567f5e196dcfcfa2adc9a6000926105cf575b50508160011b916000199060031b1c19161760028201555b6060840151600382015501910151151560ff801983541691161790556105c460015492604051948594855260018060a01b03166020850152608060408501526080840190610867565b9060608301520390a1005b015190508a80610563565b6002830160005260206000209760005b601f19841681106106575750827fa489fe610c894fc9981c2e2606f89202188af3ca814a1567f5e196dcfcfa2adc9960809593600193600496601f1981161061063e575b505050811b01600282015561057b565b015160001960f88460031b161c191690558a808061062e565b828201518a55600190990198602092830192016105ea565b600283016000526020600020601f830160051c8101602084106106af575b601f830160051c820181106106a3575050610523565b6000815560010161068d565b508061068d565b634e487b7160e01b600052600060045260246000fd5b3461010257602036600319011261010257600435600054811015610102576106f39061095a565b50805460018201546001600160a01b03169161073090610715600282016109e2565b9060ff6004600383015492015416916040519586958661088c565b0390f35b346101025760203660031901126101025760043567ffffffffffffffff81116101025761077e602061076b81933690600401610903565b8160405193828580945193849201610844565b8101600281520301902054604051908152f35b346101025760203660031901126101025760043580151580610838575b6107b790610acd565b60001981019081116100e0576107cc9061095a565b50604051906107da826108c5565b8054825261073060018060a01b0392836001840154169260208201938452610804600282016109e2565b9485604084015260ff600460038401549384606087015201541615159283608082015251945116946040519586958661088c565b506001548111156107ae565b60005b8381106108575750506000910152565b8181015183820152602001610847565b9060209161088081518092818552858086019101610844565b601f01601f1916010190565b93959491926080936108b892865260018060a01b0316602086015260a0604086015260a0850190610867565b9460608401521515910152565b60a0810190811067ffffffffffffffff82111761036157604052565b90601f8019910116810190811067ffffffffffffffff82111761036157604052565b81601f820112156101025780359067ffffffffffffffff82116103615760405192610938601f8401601f1916602001856108e1565b8284526020838301011161010257816000926020809301838601378301015290565b90600091825481101561099457600590838052027f290decd9548b62a8d60345a988386fc84ba6bc95484008f6362f93160ef3e563019190565b634e487b7160e01b83526032600452602483fd5b90600182811c921680156109d8575b60208310146109c257565b634e487b7160e01b600052602260045260246000fd5b91607f16916109b7565b90604051918260008254926109f6846109a8565b908184526001948581169081600014610a655750600114610a22575b5050610a20925003836108e1565b565b9093915060005260209081600020936000915b818310610a4d575050610a2093508201013880610a12565b85548884018501529485019487945091830191610a35565b915050610a2094506020925060ff191682840152151560051b8201013880610a12565b15610a8f57565b60405162461bcd60e51b8152602060048201526016602482015275496e76616c69642076696f6c6174696f6e207479706560501b6044820152606490fd5b15610ad457565b60405162461bcd60e51b815260206004820152601660248201527510da185b1b185b88191bd95cc81b9bdd08195e1a5cdd60521b6044820152606490fdfea264697066735822122091a6d3a5f65385a5ada7a8c19f624cceb9ddde48261fc905f62389ae769d4a9a64736f6c63430008130033",
  "immutableReferences": {},
  "source": "// SPDX-License-Identifier: MIT\r\npragma solidity ^0.8.0;\r\n\r\ncontract violation {\r\n    // Struct to store the details of a challan\r\n    struct Challan {\r\n        uint256 id;\r\n        address violator;\r\n        string violationDetails;\r\n        uint256 fineAmount;\r\n        bool isTerminated;\r\n    }\r\n\r\n    // Array to store all challans\r\n    Challan[] public challans;\r\n    // Counter for challan IDs\r\n    uint public challanCounter;\r\n\r\n    // Pre-defined violation details and their corresponding fines\r\n    mapping(string => uint256) public violationFines;\r\n\r\n    // Event to emit when a new challan is generated\r\n    event ChallanGenerated(\r\n        uint id,\r\n        address violator,\r\n        string violationDetails,\r\n        uint fineAmount\r\n    );\r\n    // Event to emit when a challan is updated\r\n    event ChallanUpdated(uint id, string violationDetails, uint fineAmount);\r\n    // Event to emit when a challan is terminated\r\n    event ChallanTerminated(uint id);\r\n\r\n    // Constructor to initialize violation details with fines\r\n    constructor() {\r\n        violationFines[\"Speeding\"] = 500;\r\n        violationFines[\"Parking\"] = 200;\r\n        violationFines[\"No Seatbelt\"] = 100;\r\n        // Add more predefined violations and fines as needed\r\n    }\r\n\r\n    // Function to generate a new challan\r\n    function generateChallan(\r\n        address _violator,\r\n        string memory _violationDetails\r\n    ) public {\r\n        // Ensure the violation type exists in the pre-defined list\r\n        require(violationFines[_violationDetails] > 0, \"Invalid violation type\");\r\n\r\n        challanCounter++;\r\n        uint fineAmount = violationFines[_violationDetails];  // Fetch fine based on violation type\r\n\r\n        Challan memory newChallan = Challan({\r\n            id: challanCounter,\r\n            violator: _violator,\r\n            violationDetails: _violationDetails,\r\n            fineAmount: fineAmount,\r\n            isTerminated: false\r\n        });\r\n        challans.push(newChallan);  // Add the new challan to the array\r\n\r\n        emit ChallanGenerated(\r\n            challanCounter,\r\n            _violator,\r\n            _violationDetails,\r\n            fineAmount\r\n        );\r\n    }\r\n\r\n    // Function to get a challan's details\r\n    function getChallan(\r\n        uint _id\r\n    )\r\n        external\r\n        view\r\n        returns (\r\n            uint id,\r\n            address violator,\r\n            string memory violationDetails,\r\n            uint fineAmount,\r\n            bool isTerminated\r\n        )\r\n    {\r\n        // Ensure the challan exists\r\n        require(_id > 0 && _id <= challanCounter, \"Challan does not exist\");\r\n\r\n        // Fetch the challan from the array\r\n        Challan memory challan = challans[_id - 1];\r\n\r\n        // Return the challan details\r\n        return (\r\n            challan.id,\r\n            challan.violator,\r\n            challan.violationDetails,\r\n            challan.fineAmount,\r\n            challan.isTerminated\r\n        );\r\n    }\r\n\r\n    // Function to update a challan's details\r\n    function updateChallan(\r\n        uint _id,\r\n        string memory _violationDetails\r\n    ) public {\r\n        // Ensure the challan exists\r\n        require(_id > 0 && _id <= challanCounter, \"Challan does not exist\");\r\n\r\n        // Fetch the challan from the array\r\n        Challan storage challan = challans[_id - 1];\r\n\r\n        // Ensure the challan is not terminated\r\n        require(!challan.isTerminated, \"Challan is terminated and cannot be updated\");\r\n\r\n        // Ensure the new violation type exists in the pre-defined list\r\n        require(violationFines[_violationDetails] > 0, \"Invalid violation type\");\r\n\r\n        // Update the challan details\r\n        challan.violationDetails = _violationDetails;\r\n        challan.fineAmount = violationFines[_violationDetails];\r\n\r\n        emit ChallanUpdated(_id, _violationDetails, challan.fineAmount);\r\n    }\r\n\r\n    // Function to terminate a challan\r\n    function terminateChallan(uint _id) public {\r\n        // Ensure the challan exists\r\n        require(_id > 0 && _id <= challanCounter, \"Challan does not exist\");\r\n\r\n        // Fetch the challan from the array\r\n        Challan storage challan = challans[_id - 1];\r\n\r\n        // Terminate the challan\r\n        challan.isTerminated = true;\r\n\r\n        emit ChallanTerminated(_id);\r\n    }\r\n}\r\n",
  "sourcePath": "E:\\FAST\\FYP\\Contracts\\contracts\\violation.sol",
  "compiler": {
    "name": "solc",
    "version": "0.8.19+commit.7dd6d404.Emscripten.clang"
  },
  "schemaVersion": "3.4.16",
  "updatedAt": "2024-09-10T22:48:01.998Z",
  "networkType": "ethereum",
  "devdoc": {
    "kind": "dev",
    "methods": {},
    "version": 1
  },
  "userdoc": {
    "kind": "user",
    "methods": {},
    "version": 1
  }
}