{
  "contractName": "FinePayment",
  "abi": [
    {
      "anonymous": false,
      "inputs": [
        {
          "indexed": false,
          "internalType": "uint256",
          "name": "id",
          "type": "uint256"
        },
        {
          "indexed": false,
          "internalType": "address",
          "name": "violator",
          "type": "address"
        },
        {
          "indexed": false,
          "internalType": "uint256",
          "name": "challanId",
          "type": "uint256"
        },
        {
          "indexed": false,
          "internalType": "uint256",
          "name": "fineAmount",
          "type": "uint256"
        }
      ],
      "name": "PaymentCreated",
      "type": "event"
    },
    {
      "anonymous": false,
      "inputs": [
        {
          "indexed": false,
          "internalType": "uint256",
          "name": "id",
          "type": "uint256"
        },
        {
          "indexed": false,
          "internalType": "uint256",
          "name": "timestamp",
          "type": "uint256"
        }
      ],
      "name": "PaymentMade",
      "type": "event"
    },
    {
      "inputs": [],
      "name": "paymentCounter",
      "outputs": [
        {
          "internalType": "uint256",
          "name": "",
          "type": "uint256"
        }
      ],
      "stateMutability": "view",
      "type": "function",
      "constant": true
    },
    {
      "inputs": [
        {
          "internalType": "uint256",
          "name": "",
          "type": "uint256"
        }
      ],
      "name": "payments",
      "outputs": [
        {
          "internalType": "uint256",
          "name": "id",
          "type": "uint256"
        },
        {
          "internalType": "address",
          "name": "violator",
          "type": "address"
        },
        {
          "internalType": "uint256",
          "name": "challanId",
          "type": "uint256"
        },
        {
          "internalType": "uint256",
          "name": "fineAmount",
          "type": "uint256"
        },
        {
          "internalType": "bool",
          "name": "isPaid",
          "type": "bool"
        },
        {
          "internalType": "uint256",
          "name": "paymentTimestamp",
          "type": "uint256"
        }
      ],
      "stateMutability": "view",
      "type": "function",
      "constant": true
    },
    {
      "inputs": [
        {
          "internalType": "address",
          "name": "_violator",
          "type": "address"
        },
        {
          "internalType": "uint256",
          "name": "_challanId",
          "type": "uint256"
        },
        {
          "internalType": "uint256",
          "name": "_fineAmount",
          "type": "uint256"
        }
      ],
      "name": "createPayment",
      "outputs": [],
      "stateMutability": "nonpayable",
      "type": "function"
    },
    {
      "inputs": [
        {
          "internalType": "uint256",
          "name": "_paymentId",
          "type": "uint256"
        }
      ],
      "name": "makePayment",
      "outputs": [],
      "stateMutability": "payable",
      "type": "function",
      "payable": true
    },
    {
      "inputs": [
        {
          "internalType": "uint256",
          "name": "_paymentId",
          "type": "uint256"
        }
      ],
      "name": "getPaymentDetails",
      "outputs": [
        {
          "internalType": "uint256",
          "name": "",
          "type": "uint256"
        },
        {
          "internalType": "address",
          "name": "",
          "type": "address"
        },
        {
          "internalType": "uint256",
          "name": "",
          "type": "uint256"
        },
        {
          "internalType": "uint256",
          "name": "",
          "type": "uint256"
        },
        {
          "internalType": "bool",
          "name": "",
          "type": "bool"
        },
        {
          "internalType": "uint256",
          "name": "",
          "type": "uint256"
        }
      ],
      "stateMutability": "view",
      "type": "function",
      "constant": true
    }
  ],
  "bytecode": "0x6080806040523461001657610491908161001c8239f35b600080fdfe6040608081526004908136101561001557600080fd5b600090813560e01c80635114cb52146102e357806376840b60146102c557806387d817891461024d5780639e70df21146101795763f585a1ee1461005857600080fd5b34610175576060366003190112610175576001600160a01b0383358181169290839003610171576024359060443592600154600019811461015e57917f6c23fabebe866e0b54591aeafeac12175f653dc7e660f6e5459b83d72c0cac70959391600589896001608099970191826001556100d06103e0565b94838652602086018a81528787019089825260608801928b8452898e8a019680885260a08b0198818a528152806020522098518955600189019151166bffffffffffffffffffffffff60a01b82541617905551600287015551600386015584019051151560ff801983541691161790555191015560015493815194855260208501528301526060820152a180f35b634e487b7160e01b875260118852602487fd5b8380fd5b5080fd5b5091903461024a57602036600319011261024a578261024691833581528060205220926101a46103e0565b9380549081865260018060a01b0394856001830154169560208801968752600283015497858101988952610201600560ff60038701549560608501968752870154169560808401961515875201549560a083019687521515610416565b51965116965190519151151592519351968796879260a094919796959260c08501988552600180871b0316602085015260408401526060830152151560808201520152565b0390f35b80fd5b50903461024a57602036600319011261024a578235815260208181529082902080546001820154600283015460038401549684015460059094015495519283526001600160a01b03909116938201939093526040810192909252606082019390935260ff9092161515608083015260a082015260c090f35b50346101755781600319360112610175576020906001549051908152f35b5060203660031901126101755782358083528260205281832061030881541515610416565b84810180549560ff87166103a65760038301543403610363575060017f0e9e4ec6fa83fe2a2893fd5d6517a890df20f72cc0ba40495b21e65d12223503959660ff19161790556005429101558151908152426020820152a180f35b606490602086519162461bcd60e51b8352820152601860248201527f496e636f7272656374207061796d656e7420616d6f756e7400000000000000006044820152fd5b606490602086519162461bcd60e51b835282015260146024820152735061796d656e7420616c7265616479206d61646560601b6044820152fd5b6040519060c0820182811067ffffffffffffffff82111761040057604052565b634e487b7160e01b600052604160045260246000fd5b1561041d57565b60405162461bcd60e51b815260206004820152601660248201527514185e5b595b9d08191bd95cc81b9bdd08195e1a5cdd60521b6044820152606490fdfea2646970667358221220156eb45d53daa20a14839cfa3dc6479b3ab181521b9434a88275b897ff1dc72064736f6c63430008130033",
  "immutableReferences": {},
  "source": "// SPDX-License-Identifier: MIT\r\npragma solidity ^0.8.0;\r\n\r\ncontract FinePayment {\r\n    // Struct to store payment details\r\n    struct Payment {\r\n        uint id;\r\n        address violator;\r\n        uint challanId;\r\n        uint fineAmount;\r\n        bool isPaid;\r\n        uint paymentTimestamp;\r\n    }\r\n\r\n    // Mapping to store payments with a unique ID\r\n    mapping(uint => Payment) public payments;\r\n    // Counter for payment IDs\r\n    uint public paymentCounter;\r\n\r\n    // Event to emit when a new payment is created\r\n    event PaymentCreated(uint id, address violator, uint challanId, uint fineAmount);\r\n    // Event to emit when a payment is made\r\n    event PaymentMade(uint id, uint timestamp);\r\n\r\n    // Function to create a payment for a challan\r\n    function createPayment(address _violator, uint _challanId, uint _fineAmount) public {\r\n        paymentCounter++;\r\n        payments[paymentCounter] = Payment(paymentCounter, _violator, _challanId, _fineAmount, false, 0);\r\n        emit PaymentCreated(paymentCounter, _violator, _challanId, _fineAmount);\r\n    }\r\n\r\n    function makePayment(uint _paymentId) public payable {\r\n    Payment storage payment = payments[_paymentId];\r\n    require(payment.id != 0, \"Payment does not exist\");\r\n    require(!payment.isPaid, \"Payment already made\");\r\n    require(msg.value == payment.fineAmount, \"Incorrect payment amount\"); // This is the check that should throw an error\r\n    payment.isPaid = true;\r\n    payment.paymentTimestamp = block.timestamp;\r\n\r\n    emit PaymentMade(_paymentId, block.timestamp);\r\n}\r\n\r\n    // Function to get payment details by ID\r\n    function getPaymentDetails(uint _paymentId) public view returns (uint, address, uint, uint, bool, uint) {\r\n        Payment memory payment = payments[_paymentId];\r\n        require(payment.id != 0, \"Payment does not exist\");\r\n\r\n        return (payment.id, payment.violator, payment.challanId, payment.fineAmount, payment.isPaid, payment.paymentTimestamp);\r\n    }\r\n}\r\n",
  "sourcePath": "D:\\naufil\\FineFlow-FYP\\Contracts\\contracts\\FinePayment.sol",
  "compiler": {
    "name": "solc",
    "version": "0.8.19+commit.7dd6d404.Emscripten.clang"
  },
  "schemaVersion": "3.4.16",
  "updatedAt": "2024-09-29T09:59:38.158Z",
  "networkType": "ethereum",
  "devdoc": {
    "kind": "dev",
    "methods": {},
    "version": 1
  },
  "userdoc": {
    "kind": "user",
    "methods": {},
    "version": 1
  }
}