{
  "contractName": "FinePayment",
  "abi": [
    {
      "anonymous": false,
      "inputs": [
        {
          "indexed": false,
          "internalType": "uint256",
          "name": "paymentId",
          "type": "uint256"
        },
        {
          "indexed": false,
          "internalType": "address",
          "name": "violator",
          "type": "address"
        },
        {
          "indexed": false,
          "internalType": "uint256",
          "name": "challanId",
          "type": "uint256"
        },
        {
          "indexed": false,
          "internalType": "string",
          "name": "fineAmount",
          "type": "string"
        },
        {
          "indexed": false,
          "internalType": "uint256",
          "name": "timestamp",
          "type": "uint256"
        }
      ],
      "name": "PaymentProcessed",
      "type": "event"
    },
    {
      "inputs": [
        {
          "internalType": "uint256",
          "name": "",
          "type": "uint256"
        }
      ],
      "name": "challanStatus",
      "outputs": [
        {
          "internalType": "bool",
          "name": "",
          "type": "bool"
        }
      ],
      "stateMutability": "view",
      "type": "function",
      "constant": true
    },
    {
      "inputs": [],
      "name": "paymentCounter",
      "outputs": [
        {
          "internalType": "uint256",
          "name": "",
          "type": "uint256"
        }
      ],
      "stateMutability": "view",
      "type": "function",
      "constant": true
    },
    {
      "inputs": [
        {
          "internalType": "uint256",
          "name": "",
          "type": "uint256"
        }
      ],
      "name": "payments",
      "outputs": [
        {
          "internalType": "uint256",
          "name": "id",
          "type": "uint256"
        },
        {
          "internalType": "address",
          "name": "violator",
          "type": "address"
        },
        {
          "internalType": "uint256",
          "name": "challanId",
          "type": "uint256"
        },
        {
          "internalType": "string",
          "name": "fineAmount",
          "type": "string"
        },
        {
          "internalType": "bool",
          "name": "isPaid",
          "type": "bool"
        },
        {
          "internalType": "uint256",
          "name": "paymentTimestamp",
          "type": "uint256"
        }
      ],
      "stateMutability": "view",
      "type": "function",
      "constant": true
    },
    {
      "inputs": [],
      "name": "totalFinePayments",
      "outputs": [
        {
          "internalType": "uint256",
          "name": "",
          "type": "uint256"
        }
      ],
      "stateMutability": "view",
      "type": "function",
      "constant": true
    },
    {
      "inputs": [
        {
          "internalType": "uint256",
          "name": "_challanId",
          "type": "uint256"
        }
      ],
      "name": "payChallan",
      "outputs": [],
      "stateMutability": "payable",
      "type": "function",
      "payable": true
    },
    {
      "inputs": [
        {
          "internalType": "uint256",
          "name": "_challanId",
          "type": "uint256"
        }
      ],
      "name": "isChallanPaid",
      "outputs": [
        {
          "internalType": "bool",
          "name": "",
          "type": "bool"
        }
      ],
      "stateMutability": "view",
      "type": "function",
      "constant": true
    },
    {
      "inputs": [],
      "name": "getTotalFinePayments",
      "outputs": [
        {
          "internalType": "uint256",
          "name": "",
          "type": "uint256"
        }
      ],
      "stateMutability": "view",
      "type": "function",
      "constant": true
    },
    {
      "inputs": [],
      "name": "getPaymentCount",
      "outputs": [
        {
          "internalType": "uint256",
          "name": "",
          "type": "uint256"
        }
      ],
      "stateMutability": "view",
      "type": "function",
      "constant": true
    }
  ],
  "bytecode": "0x6080806040523461001657610833908161001c8239f35b600080fdfe6080604081815260048036101561001557600080fd5b600092833560e01c9081631d7c96b7146105895750806365bda1741461044257806376840b60146100aa57806387d81789146104615780639f82ec8614610442578063a9ad498e146100cd578063af32a03f146100aa5763c063806a1461007b57600080fd5b346100a65760203660031901126100a6578160209360ff923581526001855220541690519015158152f35b8280fd5b5050346100c957816003193601126100c9576020906002549051908152f35b5080fd5b509190602090816003193601126100a65783359034156103ef57818452600180845260ff82862054166103b5576101056002546106b4565b9081600255610113346106f5565b83519060c082019367ffffffffffffffff94838110868211176103a25786528252868201903382528583019487865260608401918252608084019585875260a08501934285528b546801000000000000000081101561038e578781018d5561017a906105b4565b96909661037b575186558686019060018060a01b039051166bffffffffffffffffffffffff60a01b8254161790555160028501556003840191518051918211610368576101c78354610602565b601f8111610322575b508990601f83116001146102bc576005949392918c91836102b1575b5050600019600383901b1c191690861b1790555b898301945115159460ff199560ff8783541691161790555191015560035434810180911161029e5760035583865280855282862080549092161790556002547fff86e5e01aa57645a6b494f2a60923fac4b2c9e4aaad8fd148925809bf60862e9392909161029291610271346106f5565b9180519586958652339086015284015260a0606084015260a0830190610674565b4260808301520390a180f35b634e487b7160e01b875260118852602487fd5b0151905038806101ec565b9392918b8792601f1983168583528d80842093905b82821061030b5750509683600598106102f2575b505050811b019055610200565b015160001960f88460031b161c191690553880806102e5565b838a015185558b969094019392830192018e6102d1565b838c528a8c20601f840160051c8101918c851061035e575b601f0160051c019087905b8281106103535750506101d0565b8d8155018790610345565b909150819061033a565b634e487b7160e01b8b5260418c5260248bfd5b50634e487b7160e01b8c528b8d5260248cfd5b50634e487b7160e01b8c5260418d5260248cfd5b634e487b7160e01b8a5260418b5260248afd5b815162461bcd60e51b8152808701859052601460248201527310da185b1b185b88185b1c9958591e481c185a5960621b6044820152606490fd5b5162461bcd60e51b8152808501839052602860248201527f5061796d656e7420616d6f756e74206d7573742062652067726561746572207460448201526768616e207a65726f60c01b6064820152608490fd5b5050346100c957816003193601126100c9576020906003549051908152f35b509190346100c957602092836003193601126100a657803583548110156105855761048b906105b4565b509182549360019160018060a01b038386015416936002860154928860038801845196838254926104bb84610602565b808b529383811690811561055c5750600114610525575b505050505060ff859493926104ee61051497600594038761063c565b88015416960154948151988998895288015286015260c0606086015260c0850190610674565b911515608084015260a08301520390f35b9080949550528383205b8284106105495750505085010188826104ee8760056104d2565b805489850186015292840192810161052f565b60ff1916868c0152505050501515600590811b87019091019150899083906104ee9088906104d2565b8380fd5b9291905034610585576020366003190112610585573583526001602090815292205460ff1615158152f35b9060009182548110156105ee57600690838052027f290decd9548b62a8d60345a988386fc84ba6bc95484008f6362f93160ef3e563019190565b634e487b7160e01b83526032600452602483fd5b90600182811c92168015610632575b602083101461061c57565b634e487b7160e01b600052602260045260246000fd5b91607f1691610611565b90601f8019910116810190811067ffffffffffffffff82111761065e57604052565b634e487b7160e01b600052604160045260246000fd5b919082519283825260005b8481106106a0575050826000602080949584010152601f8019910116010190565b60208183018101518483018201520161067f565b60001981146106c35760010190565b634e487b7160e01b600052601160045260246000fd5b67ffffffffffffffff811161065e57601f01601f191660200190565b80156107ce5780816000925b6107ba575061070f826106d9565b9161071d604051938461063c565b80835281601f1961072d836106d9565b01916020923684870137925b6107435750505090565b60001983019283116106c35782600a91828104928084029084820414841517156106c35781039081116106c35760ff8091166030019081116106c35785518210156107a45760f81b6001600160f81b03191660001a90850183015380610739565b634e487b7160e01b600052603260045260246000fd5b916107c6600a916106b4565b920480610701565b506040516040810181811067ffffffffffffffff82111761065e5760405260018152600360fc1b60208201529056fea26469706673582212200cc6e638678639aa913277f681d3f2b5889384c082492c37005159ca1279c5da64736f6c63430008130033",
  "immutableReferences": {},
  "source": "// SPDX-License-Identifier: MIT\r\npragma solidity ^0.8.0;\r\n\r\ncontract FinePayment {\r\n    // Struct to store payment details\r\n    struct Payment {\r\n        uint id;\r\n        address violator;\r\n        uint challanId;\r\n        string fineAmount;\r\n        bool isPaid;\r\n        uint paymentTimestamp;\r\n    }\r\n\r\n    Payment[] public payments; // Store payments in an array\r\n\r\n    mapping(uint => bool) public challanStatus; // Mapping to track if a challan is paid/terminated\r\n\r\n    uint public paymentCounter; // Counter for payments\r\n    uint public totalFinePayments; // Aggregate total fine payments\r\n\r\n    // Event to emit when a new payment is processed\r\n    event PaymentProcessed(\r\n        uint paymentId,\r\n        address violator,\r\n        uint challanId,\r\n        string fineAmount,\r\n        uint timestamp\r\n    );\r\n\r\n    // Function to handle payment for an existing challan\r\n    function payChallan(uint _challanId) public payable {\r\n        require(msg.value > 0, \"Payment amount must be greater than zero\");\r\n        require(!challanStatus[_challanId], \"Challan already paid\");\r\n\r\n        // Increment the payment counter and store payment details\r\n        paymentCounter++;\r\n        payments.push(\r\n            Payment(\r\n                paymentCounter,\r\n                msg.sender,\r\n                _challanId,\r\n                uintToString(msg.value),\r\n                true,\r\n                block.timestamp\r\n            )\r\n        );\r\n\r\n        // Update the total fine payments\r\n        totalFinePayments += msg.value; // Update total payments\r\n\r\n        // Mark the challan as terminated (paid)\r\n        challanStatus[_challanId] = true;\r\n\r\n        // Emit the payment processed event\r\n        emit PaymentProcessed(\r\n            paymentCounter,\r\n            msg.sender,\r\n            _challanId,\r\n            uintToString(msg.value),\r\n            block.timestamp\r\n        );\r\n    }\r\n\r\n    // Function to check if a challan is paid\r\n    function isChallanPaid(uint _challanId) public view returns (bool) {\r\n        return challanStatus[_challanId];\r\n    }\r\n\r\n    // Function to get total fine payments\r\n    function getTotalFinePayments() public view returns (uint) {\r\n        return totalFinePayments;\r\n    }\r\n\r\n    function getPaymentCount() public view returns (uint256) {\r\n    return paymentCounter;\r\n    }\r\n\r\n    // Helper function to convert uint to string\r\n    function uintToString(uint v) internal pure returns (string memory) {\r\n        if (v == 0) {\r\n            return \"0\";\r\n        }\r\n        uint j = v;\r\n        uint len;\r\n        while (j != 0) {\r\n            len++;\r\n            j /= 10;\r\n        }\r\n        bytes memory bstr = new bytes(len);\r\n        uint k = len;\r\n        while (v != 0) {\r\n            k = k - 1;\r\n            uint8 temp = (48 + uint8(v - (v / 10) * 10));\r\n            bytes1 b1 = bytes1(temp);\r\n            bstr[k] = b1;\r\n            v /= 10;\r\n        }\r\n        return string(bstr);\r\n    }\r\n}\r\n",
  "sourcePath": "C:\\Users\\naufi\\Desktop\\FYP\\FineFlow-FYP\\Contracts\\contracts\\FinePayment.sol",
  "compiler": {
    "name": "solc",
    "version": "0.8.19+commit.7dd6d404.Emscripten.clang"
  },
  "schemaVersion": "3.4.16",
  "updatedAt": "2024-10-10T00:23:04.931Z",
  "networkType": "ethereum",
  "devdoc": {
    "kind": "dev",
    "methods": {},
    "version": 1
  },
  "userdoc": {
    "kind": "user",
    "methods": {},
    "version": 1
  }
}