{
  "contractName": "FinePayment",
  "abi": [
    {
      "anonymous": false,
      "inputs": [
        {
          "indexed": false,
          "internalType": "uint256",
          "name": "paymentId",
          "type": "uint256"
        },
        {
          "indexed": false,
          "internalType": "address",
          "name": "violator",
          "type": "address"
        },
        {
          "indexed": false,
          "internalType": "uint256",
          "name": "challanId",
          "type": "uint256"
        },
        {
          "indexed": false,
          "internalType": "string",
          "name": "fineAmount",
          "type": "string"
        },
        {
          "indexed": false,
          "internalType": "uint256",
          "name": "timestamp",
          "type": "uint256"
        }
      ],
      "name": "PaymentProcessed",
      "type": "event"
    },
    {
      "inputs": [
        {
          "internalType": "uint256",
          "name": "",
          "type": "uint256"
        }
      ],
      "name": "challanStatus",
      "outputs": [
        {
          "internalType": "bool",
          "name": "",
          "type": "bool"
        }
      ],
      "stateMutability": "view",
      "type": "function",
      "constant": true
    },
    {
      "inputs": [],
      "name": "paymentCounter",
      "outputs": [
        {
          "internalType": "uint256",
          "name": "",
          "type": "uint256"
        }
      ],
      "stateMutability": "view",
      "type": "function",
      "constant": true
    },
    {
      "inputs": [
        {
          "internalType": "uint256",
          "name": "",
          "type": "uint256"
        }
      ],
      "name": "payments",
      "outputs": [
        {
          "internalType": "uint256",
          "name": "id",
          "type": "uint256"
        },
        {
          "internalType": "address",
          "name": "violator",
          "type": "address"
        },
        {
          "internalType": "uint256",
          "name": "challanId",
          "type": "uint256"
        },
        {
          "internalType": "string",
          "name": "fineAmount",
          "type": "string"
        },
        {
          "internalType": "bool",
          "name": "isPaid",
          "type": "bool"
        },
        {
          "internalType": "uint256",
          "name": "paymentTimestamp",
          "type": "uint256"
        }
      ],
      "stateMutability": "view",
      "type": "function",
      "constant": true
    },
    {
      "inputs": [
        {
          "internalType": "uint256",
          "name": "_challanId",
          "type": "uint256"
        }
      ],
      "name": "payChallan",
      "outputs": [],
      "stateMutability": "payable",
      "type": "function",
      "payable": true
    },
    {
      "inputs": [
        {
          "internalType": "uint256",
          "name": "_challanId",
          "type": "uint256"
        }
      ],
      "name": "isChallanPaid",
      "outputs": [
        {
          "internalType": "bool",
          "name": "",
          "type": "bool"
        }
      ],
      "stateMutability": "view",
      "type": "function",
      "constant": true
    }
  ],
  "bytecode": "0x60808060405234610016576107fa908161001c8239f35b600080fdfe6080604081815260048036101561001557600080fd5b600092833560e01c9081631d7c96b7146105505750806376840b601461053157806387d8178914610405578063a9ad498e146100895763c063806a1461005a57600080fd5b34610085576020366003190112610085578160209360ff923581526001855220541690519015158152f35b8280fd5b509190602090816003193601126100855783359034156103b25781845260019485845260ff828620541661037a576100c260025461067b565b95866002556100d0346106bc565b9183519060c082019867ffffffffffffffff998381108b8211176103675786528252868201903382528583019487865260608401908152608084019585875260a08501934285528b5468010000000000000000811015610354578781018d556101389061057b565b969096610342575186555186860180546001600160a01b0319166001600160a01b0392909216919091179055516002850155518051909a600385019190811161032f5761018582546105c9565b601f81116102e9575b5089601f8211600114610257579181600594926102409a99989796948e9f7fff86e5e01aa57645a6b494f2a60923fac4b2c9e4aaad8fd148925809bf60862e9f9261024c575b5050600019600383901b1c191690871b1790555b8301945115159460ff199560ff87835416911617905551910155848852808652828820918254161790556002549261021f346106bc565b9180519586958652339086015284015260a0606084015260a083019061063b565b4260808301520390a180f35b0151905038806101d4565b828c528a8c209c601f1983168d5b8181106102ce5750927fff86e5e01aa57645a6b494f2a60923fac4b2c9e4aaad8fd148925809bf60862e9d9e89989795936102409c9b9a938360059997106102b5575b505050811b0190556101e8565b015160001960f88460031b161c191690553880806102a8565b919e8f8a8f928684930151815501940192019e91929e610265565b828c528a8c20601f830160051c8101918c8410610325575b601f0160051c019087905b82811061031a57505061018e565b8d815501879061030c565b9091508190610301565b634e487b7160e01b8b526041835260248bfd5b634e487b7160e01b8d528c855260248dfd5b634e487b7160e01b8d526041855260248dfd5b634e487b7160e01b8a526041835260248afd5b83606492519162461bcd60e51b8352820152601460248201527310da185b1b185b88185b1c9958591e481c185a5960621b6044820152fd5b5162461bcd60e51b8152808501839052602860248201527f5061796d656e7420616d6f756e74206d7573742062652067726561746572207460448201526768616e207a65726f60c01b6064820152608490fd5b5091903461052d576020928360031936011261008557803583548110156105295761042f9061057b565b509182549360019160018060a01b0383860154169360028601549288600388018451968382549261045f846105c9565b808b529383811690811561050057506001146104c9575b505050505060ff859493926104926104b8976005940387610603565b88015416960154948151988998895288015286015260c0606086015260c085019061063b565b911515608084015260a08301520390f35b9080949550528383205b8284106104ed575050508501018882610492876005610476565b80548985018601529284019281016104d3565b60ff1916868c0152505050501515600590811b8701909101915089908390610492908890610476565b8380fd5b5080fd5b50503461052d578160031936011261052d576020906002549051908152f35b9291905034610529576020366003190112610529573583526001602090815292205460ff1615158152f35b9060009182548110156105b557600690838052027f290decd9548b62a8d60345a988386fc84ba6bc95484008f6362f93160ef3e563019190565b634e487b7160e01b83526032600452602483fd5b90600182811c921680156105f9575b60208310146105e357565b634e487b7160e01b600052602260045260246000fd5b91607f16916105d8565b90601f8019910116810190811067ffffffffffffffff82111761062557604052565b634e487b7160e01b600052604160045260246000fd5b919082519283825260005b848110610667575050826000602080949584010152601f8019910116010190565b602081830181015184830182015201610646565b600019811461068a5760010190565b634e487b7160e01b600052601160045260246000fd5b67ffffffffffffffff811161062557601f01601f191660200190565b80156107955780816000925b61078157506106d6826106a0565b916106e46040519384610603565b80835281601f196106f4836106a0565b01916020923684870137925b61070a5750505090565b600019830192831161068a5782600a918281049280840290848204148415171561068a57810390811161068a5760ff80911660300190811161068a57855182101561076b5760f81b6001600160f81b03191660001a90850183015380610700565b634e487b7160e01b600052603260045260246000fd5b9161078d600a9161067b565b9204806106c8565b506040516040810181811067ffffffffffffffff8211176106255760405260018152600360fc1b60208201529056fea26469706673582212205825181c79a4b1a938254569d13189e3c0f0b50f8c97d58961b56f739c15736f64736f6c63430008130033",
  "immutableReferences": {},
  "source": "// SPDX-License-Identifier: MIT\r\npragma solidity ^0.8.0;\r\n\r\ncontract FinePayment {\r\n    // Struct to store payment details\r\n    struct Payment {\r\n        uint id;\r\n        address violator;\r\n        uint challanId;\r\n        string fineAmount;\r\n        bool isPaid;\r\n        uint paymentTimestamp;\r\n    }\r\n\r\n    // Array to store all payments\r\n    Payment[] public payments; // Store payments in an array\r\n\r\n    mapping(uint => bool) public challanStatus; // Mapping to track if a challan is paid/terminated\r\n\r\n    uint public paymentCounter; // Counter for payments\r\n\r\n    // Event to emit when a new payment is processed\r\n    event PaymentProcessed(\r\n        uint paymentId,\r\n        address violator,\r\n        uint challanId,\r\n        string fineAmount,\r\n        uint timestamp\r\n    );\r\n\r\n    // Function to handle payment for an existing challan\r\n    function payChallan(uint _challanId) public payable {\r\n        require(msg.value > 0, \"Payment amount must be greater than zero\");\r\n        require(!challanStatus[_challanId], \"Challan already paid\");\r\n\r\n        // Increment the payment counter and store payment details\r\n        paymentCounter++;\r\n        payments.push(\r\n            Payment(\r\n                paymentCounter,\r\n                msg.sender,\r\n                _challanId,\r\n                uintToString(msg.value),\r\n                true,\r\n                block.timestamp\r\n            )\r\n        );\r\n\r\n        // Mark the challan as terminated (paid)\r\n        challanStatus[_challanId] = true;\r\n\r\n        // Emit the payment processed event\r\n        emit PaymentProcessed(\r\n            paymentCounter,\r\n            msg.sender,\r\n            _challanId,\r\n            uintToString(msg.value),\r\n            block.timestamp\r\n        );\r\n    }\r\n\r\n    // Function to check if a challan is paid\r\n    function isChallanPaid(uint _challanId) public view returns (bool) {\r\n        return challanStatus[_challanId];\r\n    }\r\n\r\n    // Helper function to convert uint to string\r\n    function uintToString(uint v) internal pure returns (string memory) {\r\n        if (v == 0) {\r\n            return \"0\";\r\n        }\r\n        uint j = v;\r\n        uint len;\r\n        while (j != 0) {\r\n            len++;\r\n            j /= 10;\r\n        }\r\n        bytes memory bstr = new bytes(len);\r\n        uint k = len;\r\n        while (v != 0) {\r\n            k = k - 1;\r\n            uint8 temp = (48 + uint8(v - (v / 10) * 10));\r\n            bytes1 b1 = bytes1(temp);\r\n            bstr[k] = b1;\r\n            v /= 10;\r\n        }\r\n        return string(bstr);\r\n    }\r\n}\r\n",
  "sourcePath": "C:\\Users\\naufi\\Desktop\\FYP\\FineFlow-FYP\\Contracts\\contracts\\FinePayment.sol",
  "compiler": {
    "name": "solc",
    "version": "0.8.19+commit.7dd6d404.Emscripten.clang"
  },
  "schemaVersion": "3.4.16",
  "updatedAt": "2024-10-03T01:53:01.789Z",
  "networkType": "ethereum",
  "devdoc": {
    "kind": "dev",
    "methods": {},
    "version": 1
  },
  "userdoc": {
    "kind": "user",
    "methods": {},
    "version": 1
  }
}