{
  "contractName": "FinePayment",
  "abi": [
    {
      "anonymous": false,
      "inputs": [
        {
          "indexed": false,
          "internalType": "uint256",
          "name": "paymentId",
          "type": "uint256"
        },
        {
          "indexed": false,
          "internalType": "address",
          "name": "violator",
          "type": "address"
        },
        {
          "indexed": false,
          "internalType": "uint256",
          "name": "challanId",
          "type": "uint256"
        },
        {
          "indexed": false,
          "internalType": "uint256",
          "name": "fineAmount",
          "type": "uint256"
        },
        {
          "indexed": false,
          "internalType": "uint256",
          "name": "timestamp",
          "type": "uint256"
        }
      ],
      "name": "PaymentProcessed",
      "type": "event"
    },
    {
      "inputs": [
        {
          "internalType": "uint256",
          "name": "",
          "type": "uint256"
        }
      ],
      "name": "challanStatus",
      "outputs": [
        {
          "internalType": "bool",
          "name": "",
          "type": "bool"
        }
      ],
      "stateMutability": "view",
      "type": "function",
      "constant": true
    },
    {
      "inputs": [],
      "name": "paymentCounter",
      "outputs": [
        {
          "internalType": "uint256",
          "name": "",
          "type": "uint256"
        }
      ],
      "stateMutability": "view",
      "type": "function",
      "constant": true
    },
    {
      "inputs": [
        {
          "internalType": "uint256",
          "name": "",
          "type": "uint256"
        }
      ],
      "name": "payments",
      "outputs": [
        {
          "internalType": "uint256",
          "name": "id",
          "type": "uint256"
        },
        {
          "internalType": "address",
          "name": "violator",
          "type": "address"
        },
        {
          "internalType": "uint256",
          "name": "challanId",
          "type": "uint256"
        },
        {
          "internalType": "uint256",
          "name": "fineAmount",
          "type": "uint256"
        },
        {
          "internalType": "bool",
          "name": "isPaid",
          "type": "bool"
        },
        {
          "internalType": "uint256",
          "name": "paymentTimestamp",
          "type": "uint256"
        }
      ],
      "stateMutability": "view",
      "type": "function",
      "constant": true
    },
    {
      "inputs": [
        {
          "internalType": "uint256",
          "name": "_challanId",
          "type": "uint256"
        }
      ],
      "name": "payChallan",
      "outputs": [],
      "stateMutability": "payable",
      "type": "function",
      "payable": true
    },
    {
      "inputs": [
        {
          "internalType": "uint256",
          "name": "_challanId",
          "type": "uint256"
        }
      ],
      "name": "isChallanPaid",
      "outputs": [
        {
          "internalType": "bool",
          "name": "",
          "type": "bool"
        }
      ],
      "stateMutability": "view",
      "type": "function",
      "constant": true
    }
  ],
  "bytecode": "0x6080806040523461001657610363908161001c8239f35b600080fdfe6080604081815260048036101561001557600080fd5b600092833560e01c9081631d7c96b7146102fe5750806376840b60146102db57806387d8178914610272578063a9ad498e146100895763c063806a1461005a57600080fd5b34610085576020366003190112610085578160209360ff923581526001855220541690519015158152f35b8280fd5b5091906020908160031936011261008557833590341561021f57818452600180845260ff82862054166101e55760025460001981146101d25781018060025582519060c0820182811067ffffffffffffffff8211176101bf5792849260058896938b60a099977f819ad4e191d509edf3ef1ce419ff7fe793d9157e0cc1ff15b049daef35a9dfac9b96528184528b868501338152888601908a82528960608801933485528060808a019b8b8d5260a08b0198428a528252522096518755878701906001808f1b039051166bffffffffffffffffffffffff8e1b8254161790555160028601555160038501558301945115159460ff199560ff87835416911617905551910155838852808552828820918254161790556002549281519384523390840152820152346060820152426080820152a180f35b634e487b7160e01b885260418952602488fd5b634e487b7160e01b865260118752602486fd5b815162461bcd60e51b8152808701859052601460248201527310da185b1b185b88185b1c9958591e481c185a5960621b6044820152606490fd5b5162461bcd60e51b8152808501839052602860248201527f5061796d656e7420616d6f756e74206d7573742062652067726561746572207460448201526768616e207a65726f60c01b6064820152608490fd5b509034610085576020366003190112610085578060c09383358152806020522080549260018060a01b0360018301541692600283015490600560ff60038601549486015416940154948151968752602087015285015260608401521515608083015260a0820152f35b5050346102fa57816003193601126102fa576020906002549051908152f35b5080fd5b9291905034610329576020366003190112610329573583526001602090815292205460ff1615158152f35b8380fdfea26469706673582212201658efda2d9874cef9229805679449f633d1657c93309110eaad1d6849bf546d64736f6c63430008130033",
  "immutableReferences": {},
  "source": "// SPDX-License-Identifier: MIT\r\npragma solidity ^0.8.0;\r\n\r\ncontract FinePayment {\r\n    // Struct to store payment details\r\n    struct Payment {\r\n        uint id;\r\n        address violator;\r\n        uint challanId;\r\n        uint fineAmount;\r\n        bool isPaid;\r\n        uint paymentTimestamp;\r\n    }\r\n\r\n    // Mappings to store payments and track challans' status\r\n    mapping(uint => Payment) public payments;\r\n    mapping(uint => bool) public challanStatus; // Mapping to track if a challan is paid/terminated\r\n    \r\n    uint public paymentCounter; // Counter for payments\r\n\r\n    // Event to emit when a new payment is processed\r\n    event PaymentProcessed(uint paymentId, address violator, uint challanId, uint fineAmount, uint timestamp);\r\n\r\n    // Function to handle payment for an existing challan\r\n    function payChallan(uint _challanId) public payable {\r\n        require(msg.value > 0, \"Payment amount must be greater than zero\");\r\n        require(!challanStatus[_challanId], \"Challan already paid\");\r\n\r\n        // Increment the payment counter and store payment details\r\n        paymentCounter++;\r\n        payments[paymentCounter] = Payment(paymentCounter, msg.sender, _challanId, msg.value, true, block.timestamp);\r\n\r\n        // Mark the challan as terminated (paid)\r\n        challanStatus[_challanId] = true;\r\n\r\n        // Emit the payment processed event\r\n        emit PaymentProcessed(paymentCounter, msg.sender, _challanId, msg.value, block.timestamp);\r\n    }\r\n\r\n    // Function to check if a challan is paid\r\n    function isChallanPaid(uint _challanId) public view returns (bool) {\r\n        return challanStatus[_challanId];\r\n    }\r\n}\r\n",
  "sourcePath": "C:\\Users\\naufi\\Desktop\\FYP\\FineFlow-FYP\\Contracts\\contracts\\FinePayment.sol",
  "compiler": {
    "name": "solc",
    "version": "0.8.19+commit.7dd6d404.Emscripten.clang"
  },
  "schemaVersion": "3.4.16",
  "updatedAt": "2024-09-30T19:20:40.227Z",
  "networkType": "ethereum",
  "devdoc": {
    "kind": "dev",
    "methods": {},
    "version": 1
  },
  "userdoc": {
    "kind": "user",
    "methods": {},
    "version": 1
  }
}