{
  "contractName": "violation",
  "abi": [
    {
      "inputs": [],
      "stateMutability": "nonpayable",
      "type": "constructor"
    },
    {
      "anonymous": false,
      "inputs": [
        {
          "indexed": false,
          "internalType": "uint256",
          "name": "id",
          "type": "uint256"
        },
        {
          "indexed": false,
          "internalType": "address",
          "name": "violator",
          "type": "address"
        },
        {
          "indexed": false,
          "internalType": "string",
          "name": "violatorCnic",
          "type": "string"
        },
        {
          "indexed": false,
          "internalType": "string",
          "name": "violatorName",
          "type": "string"
        },
        {
          "indexed": false,
          "internalType": "string",
          "name": "wardenUserName",
          "type": "string"
        },
        {
          "indexed": false,
          "internalType": "string",
          "name": "violationDetails",
          "type": "string"
        },
        {
          "indexed": false,
          "internalType": "string",
          "name": "location",
          "type": "string"
        },
        {
          "indexed": false,
          "internalType": "uint256",
          "name": "date",
          "type": "uint256"
        },
        {
          "indexed": false,
          "internalType": "uint256",
          "name": "fineAmount",
          "type": "uint256"
        }
      ],
      "name": "ChallanGenerated",
      "type": "event"
    },
    {
      "anonymous": false,
      "inputs": [
        {
          "indexed": false,
          "internalType": "uint256",
          "name": "id",
          "type": "uint256"
        }
      ],
      "name": "ChallanTerminated",
      "type": "event"
    },
    {
      "anonymous": false,
      "inputs": [
        {
          "indexed": false,
          "internalType": "uint256",
          "name": "id",
          "type": "uint256"
        },
        {
          "indexed": false,
          "internalType": "string",
          "name": "violationDetails",
          "type": "string"
        },
        {
          "indexed": false,
          "internalType": "uint256",
          "name": "fineAmount",
          "type": "uint256"
        }
      ],
      "name": "ChallanUpdated",
      "type": "event"
    },
    {
      "inputs": [],
      "name": "challanCounter",
      "outputs": [
        {
          "internalType": "uint256",
          "name": "",
          "type": "uint256"
        }
      ],
      "stateMutability": "view",
      "type": "function",
      "constant": true
    },
    {
      "inputs": [
        {
          "internalType": "uint256",
          "name": "",
          "type": "uint256"
        }
      ],
      "name": "challans",
      "outputs": [
        {
          "internalType": "uint256",
          "name": "id",
          "type": "uint256"
        },
        {
          "internalType": "address",
          "name": "violator",
          "type": "address"
        },
        {
          "internalType": "string",
          "name": "violatorCnic",
          "type": "string"
        },
        {
          "internalType": "string",
          "name": "violatorName",
          "type": "string"
        },
        {
          "internalType": "string",
          "name": "wardenUserName",
          "type": "string"
        },
        {
          "internalType": "string",
          "name": "violationDetails",
          "type": "string"
        },
        {
          "internalType": "string",
          "name": "location",
          "type": "string"
        },
        {
          "internalType": "uint256",
          "name": "date",
          "type": "uint256"
        },
        {
          "internalType": "uint256",
          "name": "fineAmount",
          "type": "uint256"
        },
        {
          "internalType": "bool",
          "name": "isTerminated",
          "type": "bool"
        }
      ],
      "stateMutability": "view",
      "type": "function",
      "constant": true
    },
    {
      "inputs": [
        {
          "internalType": "string",
          "name": "",
          "type": "string"
        }
      ],
      "name": "violationFines",
      "outputs": [
        {
          "internalType": "uint256",
          "name": "",
          "type": "uint256"
        }
      ],
      "stateMutability": "view",
      "type": "function",
      "constant": true
    },
    {
      "inputs": [
        {
          "internalType": "address",
          "name": "_violator",
          "type": "address"
        },
        {
          "internalType": "string",
          "name": "_violatorCnic",
          "type": "string"
        },
        {
          "internalType": "string",
          "name": "_violatorName",
          "type": "string"
        },
        {
          "internalType": "string",
          "name": "_wardenUserName",
          "type": "string"
        },
        {
          "internalType": "string",
          "name": "_violationDetails",
          "type": "string"
        },
        {
          "internalType": "string",
          "name": "_location",
          "type": "string"
        },
        {
          "internalType": "uint256",
          "name": "_date",
          "type": "uint256"
        }
      ],
      "name": "generateChallan",
      "outputs": [],
      "stateMutability": "nonpayable",
      "type": "function"
    },
    {
      "inputs": [
        {
          "internalType": "uint256",
          "name": "_id",
          "type": "uint256"
        }
      ],
      "name": "getChallan",
      "outputs": [
        {
          "internalType": "uint256",
          "name": "id",
          "type": "uint256"
        },
        {
          "internalType": "address",
          "name": "violator",
          "type": "address"
        },
        {
          "internalType": "string",
          "name": "violatorCnic",
          "type": "string"
        },
        {
          "internalType": "string",
          "name": "violatorName",
          "type": "string"
        },
        {
          "internalType": "string",
          "name": "wardenUserName",
          "type": "string"
        },
        {
          "internalType": "string",
          "name": "violationDetails",
          "type": "string"
        },
        {
          "internalType": "string",
          "name": "location",
          "type": "string"
        },
        {
          "internalType": "uint256",
          "name": "date",
          "type": "uint256"
        },
        {
          "internalType": "uint256",
          "name": "fineAmount",
          "type": "uint256"
        },
        {
          "internalType": "bool",
          "name": "isTerminated",
          "type": "bool"
        }
      ],
      "stateMutability": "view",
      "type": "function",
      "constant": true
    },
    {
      "inputs": [
        {
          "internalType": "uint256",
          "name": "_id",
          "type": "uint256"
        },
        {
          "internalType": "string",
          "name": "_violationDetails",
          "type": "string"
        }
      ],
      "name": "updateChallan",
      "outputs": [],
      "stateMutability": "nonpayable",
      "type": "function"
    },
    {
      "inputs": [
        {
          "internalType": "uint256",
          "name": "_id",
          "type": "uint256"
        }
      ],
      "name": "terminateChallan",
      "outputs": [],
      "stateMutability": "nonpayable",
      "type": "function"
    }
  ],
  "bytecode": "0x6080604090808252346100e557602e81675370656564696e6760c01b61019093526101f46028600292836008820152205560c860278551665061726b696e6760c81b815283600782015220556064602b85516a139bc814d9585d18995b1d60aa1b815283600b8201522055610320603885517f54726166666963205369676e616c2056696f6c6174696f6e00000000000000008152836018820152205561012c602985516857726f6e672057617960b81b815283600982015220558351906d54696e7465642057696e646f777360901b8252600e8201522055516111fb90816100eb8239f35b600080fdfe6080604052600436101561001257600080fd5b60003560e01c8063087e5640146105ef5780635146b42f146104d857806396ab4bab1461047c5780639c1cfb61146103dd578063c0dcdd8914610125578063e4f2266d146101075763fef88e971461006957600080fd5b3461010257602036600319011261010257600435801515806100f6575b61008f90611180565b60001981018181116100e0577fd4c7402b4f900bcb67a96ed6052c481de7c7015122b904145ad8dd766e6c3d4e9160096100ca60209361100d565b5001805460ff19166001179055604051908152a1005b634e487b7160e01b600052601160045260246000fd5b50600154811115610086565b600080fd5b34610102576000366003190112610102576020600154604051908152f35b34610102576040366003190112610102576004356001600160401b0360243581811161010257610159903690600401610ee4565b821515806103d1575b61016b90611180565b600019918383018481116100e0576101829061100d565b509060ff60098301541661037857604051938351916101c06020968781818901966101ae81838a610f3a565b8101600281520301902054151561113b565b60058401918551918211610362576101d8835461105b565b601f811161031c575b5086601f831160011461028757610271947fd88cd3fc9322ccf50df7dec6797866a2d3b8f4c45b92303b1a2c61dc1da54330999794846008989561024a958c9560009261027c575b508260011b9260031b1c19161790555b604051809381928751928391610f3a565b81016002815203019020549384910155606060405195869586528501526060840190610f5d565b9060408301520390a1005b89015191508e610229565b90601f1983169184600052886000209260005b81811061030557509460018561024a958c956102719a957fd88cd3fc9322ccf50df7dec6797866a2d3b8f4c45b92303b1a2c61dc1da543309f9d9a9960089d9a106102ed575b505050811b019055610239565b8a01519060f88460031b161c191690558d80806102e0565b91938a60018192878d01518155019501920161029a565b8360005287600020601f840160051c810191898510610358575b601f0160051c01905b81811061034c57506101e1565b6000815560010161033f565b9091508190610336565b634e487b7160e01b600052604160045260246000fd5b60405162461bcd60e51b815260206004820152602b60248201527f4368616c6c616e206973207465726d696e6174656420616e642063616e6e6f7460448201526a081899481d5c19185d195960aa1b6064820152608490fd5b50600154831115610162565b3461010257602036600319011261010257600435600054811015610102576104049061100d565b50805460018201546001600160a01b0316916104789061042660028201611095565b9061043360038201611095565b61043f60048301611095565b61044b60058401611095565b61045760068501611095565b9160078501549360ff6009600888015497015416966040519a8b9a8b610f82565b0390f35b34610102576020366003190112610102576004356001600160401b038111610102576104c560206104b281933690600401610ee4565b8160405193828580945193849201610f3a565b8101600281520301902054604051908152f35b3461010257602036600319011261010257600435801515806105e3575b6104fe90611180565b60001981019081116100e0576105139061100d565b506040519061052182610ea7565b8054825261047860018060a01b039283600184015416926020820193845261054b60028201611095565b946040830195865261055f60038301611095565b6060840190815261057260048401611095565b906080850191825261058660058501611095565b60a0860190815261059960068601611095565b928360c08801526007860154948560e089015260ff6009600889015498896101008c015201541615159788610120820152519951169951925190519151926040519a8b9a8b610f82565b506001548111156104f5565b346101025760e0366003190112610102576004356001600160a01b0381168103610102576024356001600160401b03811161010257610632903690600401610ee4565b906044356001600160401b03811161010257610652903690600401610ee4565b916064356001600160401b03811161010257610672903690600401610ee4565b926084356001600160401b03811161010257610692903690600401610ee4565b60a4356001600160401b038111610102576106b1903690600401610ee4565b906106ca60405160208184516101ae8183858901610f3a565b6001549560001987146100e0576001870160015560405160208184516106f38183858901610f3a565b81016002815203019020549360016040519861070e8a610ea7565b01885260018060a01b03871660208901528560408901528060608901528160808901528260a08901528360c089015260c43560e08901528461010089015260006101208901526000546801000000000000000081101561036257806001610778920160005561100d565b989098610e9157805189556001890160018060a01b036020830151166bffffffffffffffffffffffff60a01b82541617905560408101518051906001600160401b0382116103625781906107cf60028d015461105b565b601f8111610e3e575b50602090601f8311600114610dcc57600092610dc1575b50508160011b916000199060031b1c19161760028a01555b60608101518051906001600160401b03821161036257819061082c60038d015461105b565b601f8111610d6e575b50602090601f8311600114610cfc57600092610cf1575b50508160011b916000199060031b1c19161760038a01555b60808101518051906001600160401b03821161036257819061088960048d015461105b565b601f8111610c9e575b50602090601f8311600114610c2c57600092610c21575b50508160011b916000199060031b1c19161760048a01555b60a08101518051906001600160401b0382116103625781906108e660058d015461105b565b601f8111610bce575b50602090601f8311600114610b5c57600092610b51575b50508160011b916000199060031b1c19161760058a01555b60c08101518051906001600160401b0382116103625761094160068c015461105b565b601f8111610b0a575b50602090601f8311600114610a625793610a279361012060097f81551a26b2566ac2dbeb6e9185666571e1b8c5ff9a702937652a52b7b5ed49fb9e86610a359a97610a1997610a439e9d9b600092610a57575b50508160011b916000199060031b1c19161760068201555b60e08401516007820155610100840151600882015501910151151560ff80198354169116179055610a0b6001549a6040519c8d9c8d5260018060a01b031660208d015261012060408d01526101208c0190610f5d565b908a820360608c0152610f5d565b9088820360808a0152610f5d565b9086820360a0880152610f5d565b9084820360c0860152610f5d565b9060c43560e08401526101008301520390a1005b01519050388061099d565b9060068c0160005260206000209160005b601f1985168110610af257509361012060097f81551a26b2566ac2dbeb6e9185666571e1b8c5ff9a702937652a52b7b5ed49fb9e600187610a1997610a439e9d9b97610a279b610a359e9b601f19811610610ad9575b505050811b0160068201556109b5565b015160001960f88460031b161c19169055388080610ac9565b91926020600181928685015181550194019201610a73565b60068c016000526020600020601f840160051c810160208510610b4a575b601f830160051c82018110610b3e57505061094a565b60008155600101610b28565b5080610b28565b015190508b80610906565b925060058c016000526020600020906000935b601f1984168510610bb3576001945083601f19811610610b9a575b505050811b0160058a015561091e565b015160001960f88460031b161c191690558b8080610b8a565b81810151835560209485019460019093019290910190610b6f565b90915060058c016000526020600020601f840160051c810160208510610c1a575b90849392915b601f830160051c82018110610c0b5750506108ef565b60008155859450600101610bf5565b5080610bef565b015190508b806108a9565b925060048c016000526020600020906000935b601f1984168510610c83576001945083601f19811610610c6a575b505050811b0160048a01556108c1565b015160001960f88460031b161c191690558b8080610c5a565b81810151835560209485019460019093019290910190610c3f565b90915060048c016000526020600020601f840160051c810160208510610cea575b90849392915b601f830160051c82018110610cdb575050610892565b60008155859450600101610cc5565b5080610cbf565b015190508b8061084c565b925060038c016000526020600020906000935b601f1984168510610d53576001945083601f19811610610d3a575b505050811b0160038a0155610864565b015160001960f88460031b161c191690558b8080610d2a565b81810151835560209485019460019093019290910190610d0f565b90915060038c016000526020600020601f840160051c810160208510610dba575b90849392915b601f830160051c82018110610dab575050610835565b60008155859450600101610d95565b5080610d8f565b015190508b806107ef565b925060028c016000526020600020906000935b601f1984168510610e23576001945083601f19811610610e0a575b505050811b0160028a0155610807565b015160001960f88460031b161c191690558b8080610dfa565b81810151835560209485019460019093019290910190610ddf565b90915060028c016000526020600020601f840160051c810160208510610e8a575b90849392915b601f830160051c82018110610e7b5750506107d8565b60008155859450600101610e65565b5080610e5f565b634e487b7160e01b600052600060045260246000fd5b61014081019081106001600160401b0382111761036257604052565b90601f801991011681019081106001600160401b0382111761036257604052565b81601f82011215610102578035906001600160401b0382116103625760405192610f18601f8401601f191660200185610ec3565b8284526020838301011161010257816000926020809301838601378301015290565b60005b838110610f4d5750506000910152565b8181015183820152602001610f3d565b90602091610f7681518092818552858086019101610f3a565b601f01601f1916010190565b98959194610fd0610120999c9b9895610fc2610fec968d6020610ffa9b610fde98835260018060a01b03169101528d610140908160408201520190610f5d565b8c810360608e015290610f5d565b908a820360808c0152610f5d565b9088820360a08a0152610f5d565b9086820360c0880152610f5d565b9560e08501526101008401521515910152565b90600091825481101561104757600a90838052027f290decd9548b62a8d60345a988386fc84ba6bc95484008f6362f93160ef3e563019190565b634e487b7160e01b83526032600452602483fd5b90600182811c9216801561108b575b602083101461107557565b634e487b7160e01b600052602260045260246000fd5b91607f169161106a565b90604051918260008254926110a98461105b565b90818452600194858116908160001461111857506001146110d5575b50506110d392500383610ec3565b565b9093915060005260209081600020936000915b8183106111005750506110d3935082010138806110c5565b855488840185015294850194879450918301916110e8565b9150506110d394506020925060ff191682840152151560051b82010138806110c5565b1561114257565b60405162461bcd60e51b8152602060048201526016602482015275496e76616c69642076696f6c6174696f6e207479706560501b6044820152606490fd5b1561118757565b60405162461bcd60e51b815260206004820152601660248201527510da185b1b185b88191bd95cc81b9bdd08195e1a5cdd60521b6044820152606490fdfea26469706673582212208d619b6f65e53237073db968741eeacce42b0a1893d4a41000de4d6bf8fe189c64736f6c63430008130033",
  "immutableReferences": {},
  "source": "// SPDX-License-Identifier: MIT\r\npragma solidity ^0.8.0;\r\n\r\ncontract violation {\r\n    // Struct to store the details of a challan\r\n    struct Challan {\r\n        uint256 id;\r\n        address violator;\r\n        string violatorCnic;     // CNIC of the violator\r\n        string violatorName;     // Name of the violator\r\n        string wardenUserName;        // Username of the warden issuing the challan\r\n        string violationDetails; // Details of the violation\r\n        string location;         // Location where violation occurred\r\n        uint256 date;            // Timestamp of the violation\r\n        uint256 fineAmount;      // Fine amount for the violation\r\n        bool isTerminated;       // Status if challan is terminated\r\n    }\r\n\r\n    // Array to store all challans\r\n    Challan[] public challans;\r\n    // Counter for challan IDs\r\n    uint public challanCounter;\r\n\r\n    // Pre-defined violation details and their corresponding fines\r\n    mapping(string => uint256) public violationFines;\r\n\r\n    // Event to emit when a new challan is generated\r\n    event ChallanGenerated(\r\n        uint id,\r\n        address violator,\r\n        string violatorCnic,\r\n        string violatorName,\r\n        string wardenUserName,\r\n        string violationDetails,\r\n        string location,\r\n        uint256 date,\r\n        uint fineAmount\r\n    );\r\n    \r\n    // Event to emit when a challan is updated\r\n    event ChallanUpdated(uint id, string violationDetails, uint fineAmount);\r\n    \r\n    // Event to emit when a challan is terminated\r\n    event ChallanTerminated(uint id);\r\n\r\n    // Constructor to initialize violation details with fines\r\n    constructor() {\r\n        violationFines[\"Speeding\"] = 500;\r\n        violationFines[\"Parking\"] = 200;\r\n        violationFines[\"No Seatbelt\"] = 100;\r\n        violationFines[\"Traffic Signal Violation\"] = 800;\r\n        violationFines[\"Wrong Way\"] = 300;\r\n        violationFines[\"Tinted Windows\"] = 400;\r\n        // Add more predefined violations and fines as needed\r\n    }\r\n\r\n    // Function to generate a new challan\r\n    function generateChallan(\r\n        address _violator,\r\n        string memory _violatorCnic,\r\n        string memory _violatorName,\r\n        string memory _wardenUserName,\r\n        string memory _violationDetails,\r\n        string memory _location,\r\n        uint256 _date\r\n    ) public {\r\n        // Ensure the violation type exists in the pre-defined list\r\n        require(violationFines[_violationDetails] > 0, \"Invalid violation type\");\r\n\r\n        challanCounter++;\r\n        uint fineAmount = violationFines[_violationDetails];  // Fetch fine based on violation type\r\n\r\n        Challan memory newChallan = Challan({\r\n            id: challanCounter,\r\n            violator: _violator,\r\n            violatorCnic: _violatorCnic,\r\n            violatorName: _violatorName,\r\n            wardenUserName: _wardenUserName,\r\n            violationDetails: _violationDetails,\r\n            location: _location,\r\n            date: _date,\r\n            fineAmount: fineAmount,\r\n            isTerminated: false\r\n        });\r\n        challans.push(newChallan);  // Add the new challan to the array\r\n\r\n        emit ChallanGenerated(\r\n            challanCounter,\r\n            _violator,\r\n            _violatorCnic,\r\n            _violatorName,\r\n            _wardenUserName,\r\n            _violationDetails,\r\n            _location,\r\n            _date,\r\n            fineAmount\r\n        );\r\n    }\r\n\r\n    // Function to get a challan's details\r\n    function getChallan(\r\n        uint _id\r\n    )\r\n        external\r\n        view\r\n        returns (\r\n            uint id,\r\n            address violator,\r\n            string memory violatorCnic,\r\n            string memory violatorName,\r\n            string memory wardenUserName,\r\n            string memory violationDetails,\r\n            string memory location,\r\n            uint256 date,\r\n            uint fineAmount,\r\n            bool isTerminated\r\n        )\r\n    {\r\n        // Ensure the challan exists\r\n        require(_id > 0 && _id <= challanCounter, \"Challan does not exist\");\r\n\r\n        // Fetch the challan from the array\r\n        Challan memory challan = challans[_id - 1];\r\n\r\n        // Return the challan details\r\n        return (\r\n            challan.id,\r\n            challan.violator,\r\n            challan.violatorCnic,\r\n            challan.violatorName,\r\n            challan.wardenUserName,\r\n            challan.violationDetails,\r\n            challan.location,\r\n            challan.date,\r\n            challan.fineAmount,\r\n            challan.isTerminated\r\n        );\r\n    }\r\n\r\n    // Function to update a challan's details\r\n    function updateChallan(\r\n        uint _id,\r\n        string memory _violationDetails\r\n    ) public {\r\n        // Ensure the challan exists\r\n        require(_id > 0 && _id <= challanCounter, \"Challan does not exist\");\r\n\r\n        // Fetch the challan from the array\r\n        Challan storage challan = challans[_id - 1];\r\n\r\n        // Ensure the challan is not terminated\r\n        require(!challan.isTerminated, \"Challan is terminated and cannot be updated\");\r\n\r\n        // Ensure the new violation type exists in the pre-defined list\r\n        require(violationFines[_violationDetails] > 0, \"Invalid violation type\");\r\n\r\n        // Update the challan details\r\n        challan.violationDetails = _violationDetails;\r\n        challan.fineAmount = violationFines[_violationDetails];\r\n\r\n        emit ChallanUpdated(_id, _violationDetails, challan.fineAmount);\r\n    }\r\n\r\n    // Function to terminate a challan\r\n    function terminateChallan(uint _id) public {\r\n        // Ensure the challan exists\r\n        require(_id > 0 && _id <= challanCounter, \"Challan does not exist\");\r\n\r\n        // Fetch the challan from the array\r\n        Challan storage challan = challans[_id - 1];\r\n\r\n        // Terminate the challan\r\n        challan.isTerminated = true;\r\n\r\n        emit ChallanTerminated(_id);\r\n    }\r\n}\r\n",
  "sourcePath": "D:\\naufil\\FineFlow-FYP\\Contracts\\contracts\\violation.sol",
  "compiler": {
    "name": "solc",
    "version": "0.8.19+commit.7dd6d404.Emscripten.clang"
  },
  "schemaVersion": "3.4.16",
  "updatedAt": "2024-09-28T22:16:56.387Z",
  "networkType": "ethereum",
  "devdoc": {
    "kind": "dev",
    "methods": {},
    "version": 1
  },
  "userdoc": {
    "kind": "user",
    "methods": {},
    "version": 1
  }
}