{
  "contractName": "ViolationCounter",
  "abi": [
    {
      "anonymous": false,
      "inputs": [
        {
          "indexed": false,
          "internalType": "string",
          "name": "violationType",
          "type": "string"
        },
        {
          "indexed": false,
          "internalType": "uint256",
          "name": "newCount",
          "type": "uint256"
        }
      ],
      "name": "ViolationCountUpdated",
      "type": "event"
    },
    {
      "inputs": [
        {
          "internalType": "string",
          "name": "",
          "type": "string"
        }
      ],
      "name": "violationCounts",
      "outputs": [
        {
          "internalType": "uint256",
          "name": "",
          "type": "uint256"
        }
      ],
      "stateMutability": "view",
      "type": "function"
    },
    {
      "inputs": [
        {
          "internalType": "string",
          "name": "violationType",
          "type": "string"
        }
      ],
      "name": "incrementViolationCount",
      "outputs": [],
      "stateMutability": "nonpayable",
      "type": "function"
    },
    {
      "inputs": [
        {
          "internalType": "string",
          "name": "violationType",
          "type": "string"
        }
      ],
      "name": "getViolationCount",
      "outputs": [
        {
          "internalType": "uint256",
          "name": "",
          "type": "uint256"
        }
      ],
      "stateMutability": "view",
      "type": "function"
    }
  ],
  "bytecode": "0x6080806040523461001657610235908161001c8239f35b600080fdfe604060808152600436101561001357600080fd5b600090813560e01c80630ecfca111461010a578063b69aacd61461010a5763ffc8e3db1461004057600080fd5b346101065761004e36610144565b8151815190602081818501936100658183876101dc565b810187815203019020805490600182018092116100f257917f488828828fcbc672253bdd673ce99c98fbfe7a66c7aa21c3cddac7e5c7760fa194939160609355835160208184516100b78183876101dc565b810189815203019020546100dd85519586948186525193848092870152868601906101dc565b6020830152601f01601f19168101030190a180f35b634e487b7160e01b86526011600452602486fd5b5080fd5b5034610106576101336020809361012036610144565b90828551948386809551938492016101dc565b820190815203019020549051908152f35b60206003198201126101c15767ffffffffffffffff906004358281116101c157816023820112156101c1578060040135918383116101c65760405193601f8401601f19908116603f01168501908111858210176101c657604052828452602483830101116101c15781600092602460209301838601378301015290565b600080fd5b634e487b7160e01b600052604160045260246000fd5b60005b8381106101ef5750506000910152565b81810151838201526020016101df56fea264697066735822122048d55543ed090c77d94df3c662c3d2134c3c06242a228662645029b54f31575864736f6c63430008130033",
  "immutableReferences": {},
  "source": "// SPDX-License-Identifier: MIT\r\npragma solidity ^0.8.0;\r\n\r\ncontract ViolationCounter {\r\n    // Mapping to store count of each violation type\r\n    mapping(string => uint256) public violationCounts;\r\n\r\n    // Event emitted when a violation count is updated\r\n    event ViolationCountUpdated(string violationType, uint256 newCount);\r\n\r\n    // Function to increment the count of a specific violation type\r\n    function incrementViolationCount(string memory violationType) public {\r\n        // Increase the count for the violation type\r\n        violationCounts[violationType] += 1;\r\n\r\n        // Emit an event to notify about the update\r\n        emit ViolationCountUpdated(violationType, violationCounts[violationType]);\r\n    }\r\n\r\n    // Function to get the count of a specific violation type\r\n    function getViolationCount(string memory violationType) public view returns (uint256) {\r\n        return violationCounts[violationType];\r\n    }\r\n}\r\n",
  "sourcePath": "C:\\Users\\naufi\\Desktop\\FYP\\FineFlow-FYP\\Contracts\\contracts\\violationdata.sol",
  "compiler": {
    "name": "solc",
    "version": "0.8.19+commit.7dd6d404.Emscripten.clang"
  },
  "schemaVersion": "3.4.16",
  "updatedAt": "2024-10-09T19:38:20.350Z",
  "devdoc": {
    "kind": "dev",
    "methods": {},
    "version": 1
  },
  "userdoc": {
    "kind": "user",
    "methods": {},
    "version": 1
  }
}