{
  "contractName": "ViolationCounter",
  "abi": [
    {
      "anonymous": false,
      "inputs": [
        {
          "indexed": false,
          "internalType": "uint256",
          "name": "hour",
          "type": "uint256"
        },
        {
          "indexed": false,
          "internalType": "string",
          "name": "violationType",
          "type": "string"
        },
        {
          "indexed": false,
          "internalType": "uint256",
          "name": "newCount",
          "type": "uint256"
        }
      ],
      "name": "HourlyViolationCountUpdated",
      "type": "event"
    },
    {
      "anonymous": false,
      "inputs": [
        {
          "indexed": false,
          "internalType": "string",
          "name": "violationType",
          "type": "string"
        },
        {
          "indexed": false,
          "internalType": "uint256",
          "name": "newCount",
          "type": "uint256"
        }
      ],
      "name": "ViolationCountUpdated",
      "type": "event"
    },
    {
      "inputs": [
        {
          "internalType": "uint256",
          "name": "",
          "type": "uint256"
        }
      ],
      "name": "hourlyViolationCounts",
      "outputs": [
        {
          "internalType": "uint256",
          "name": "",
          "type": "uint256"
        }
      ],
      "stateMutability": "view",
      "type": "function",
      "constant": true
    },
    {
      "inputs": [
        {
          "internalType": "string",
          "name": "",
          "type": "string"
        }
      ],
      "name": "violationCounts",
      "outputs": [
        {
          "internalType": "uint256",
          "name": "",
          "type": "uint256"
        }
      ],
      "stateMutability": "view",
      "type": "function",
      "constant": true
    },
    {
      "inputs": [
        {
          "internalType": "string",
          "name": "violationType",
          "type": "string"
        }
      ],
      "name": "incrementViolationCount",
      "outputs": [],
      "stateMutability": "nonpayable",
      "type": "function"
    },
    {
      "inputs": [
        {
          "internalType": "string",
          "name": "violationType",
          "type": "string"
        }
      ],
      "name": "getViolationCount",
      "outputs": [
        {
          "internalType": "uint256",
          "name": "",
          "type": "uint256"
        }
      ],
      "stateMutability": "view",
      "type": "function",
      "constant": true
    },
    {
      "inputs": [],
      "name": "getHourlyViolationCounts",
      "outputs": [
        {
          "internalType": "uint256[24]",
          "name": "",
          "type": "uint256[24]"
        }
      ],
      "stateMutability": "view",
      "type": "function",
      "constant": true
    }
  ],
  "bytecode": "0x60808060405234610016576103a7908161001c8239f35b600080fdfe604060808152600436101561001357600080fd5b6000803560e01c80630ecfca11146101885780631599fdc714610242578063acbde6ab146101c7578063b69aacd6146101885763ffc8e3db1461005557600080fd5b3461018557610063366102a7565b82518151906020818185019361007a818387610329565b8101868152030190208054906001820180921161015d5755835182517f488828828fcbc672253bdd673ce99c98fbfe7a66c7aa21c3cddac7e5c7760fa19260209183916100ca9082908490610329565b81018681520301902054845180918682526100e78783018661034c565b9060208301520390a16018610e10420406601881101561017157806001019384546001810180911161015d57807fe8203a4fa0bb26a51dca49b81b6951ffd2569bea665dda4ae53b7f3030c5123b9596556101538251948594855260606020860152606085019061034c565b918301520390a180f35b634e487b7160e01b85526011600452602485fd5b634e487b7160e01b83526032600452602483fd5b80fd5b5090346101c3576101b26020809361019f366102a7565b9082855194838680955193849201610329565b820190815203019020549051908152f35b5080fd5b50346101855780600319360112610185578151916101e483610274565b610300809336903780516001918284835b6018821061022e5750505061020982610274565b519290835b6018831061021a578585f35b81518152918301916020918201910161020e565b8254815291850191908501906020016101f5565b5090346101c35760203660031901126101c35760043560188110156102705760209250600101549051908152f35b8280fd5b610300810190811067ffffffffffffffff82111761029157604052565b634e487b7160e01b600052604160045260246000fd5b60206003198201126103245767ffffffffffffffff906004358281116103245781602382011215610324578060040135918383116102915760405193601f8401601f19908116603f011685019081118582101761029157604052828452602483830101116103245781600092602460209301838601378301015290565b600080fd5b60005b83811061033c5750506000910152565b818101518382015260200161032c565b9060209161036581518092818552858086019101610329565b601f01601f191601019056fea2646970667358221220e1486af589c528d0670c2375d6dd4a666a9736833e5afdc97f31b646887568d864736f6c63430008130033",
  "immutableReferences": {},
  "source": "// SPDX-License-Identifier: MIT\r\npragma solidity ^0.8.0;\r\n\r\ncontract ViolationCounter {\r\n    // Mapping to store count of each violation type\r\n    mapping(string => uint256) public violationCounts;\r\n\r\n    // Mapping to store hourly violation counts (0-23)\r\n    uint256[24] public hourlyViolationCounts;\r\n\r\n    // Event emitted when a violation count is updated\r\n    event ViolationCountUpdated(string violationType, uint256 newCount);\r\n    event HourlyViolationCountUpdated(uint256 hour, string violationType, uint256 newCount);\r\n\r\n    // Function to increment the count of a specific violation type\r\n    function incrementViolationCount(string memory violationType) public {\r\n        // Increase the count for the violation type\r\n        violationCounts[violationType] += 1;\r\n\r\n        // Emit an event to notify about the update\r\n        emit ViolationCountUpdated(violationType, violationCounts[violationType]);\r\n\r\n        // Increment hourly violation count\r\n        incrementHourlyViolationCount(violationType);\r\n    }\r\n\r\n    // Internal function to increment the hourly violation count\r\n    function incrementHourlyViolationCount(string memory violationType) internal {\r\n        // Get the current hour (0-23)\r\n        uint256 hour = (block.timestamp / 3600) % 24;\r\n\r\n        // Increase the hourly count for this violation type\r\n        hourlyViolationCounts[hour] += 1;\r\n\r\n        // Emit an event to notify about the hourly update\r\n        emit HourlyViolationCountUpdated(hour, violationType, hourlyViolationCounts[hour]);\r\n    }\r\n\r\n    // Function to get the count of a specific violation type\r\n    function getViolationCount(string memory violationType) public view returns (uint256) {\r\n        return violationCounts[violationType];\r\n    }\r\n\r\n    // Function to get the hourly violation counts\r\n    function getHourlyViolationCounts() public view returns (uint256[24] memory) {\r\n        return hourlyViolationCounts;\r\n    }\r\n}\r\n",
  "sourcePath": "C:\\Users\\naufi\\Desktop\\FYP\\FineFlow-FYP\\Contracts\\contracts\\violationdata.sol",
  "compiler": {
    "name": "solc",
    "version": "0.8.19+commit.7dd6d404.Emscripten.clang"
  },
  "schemaVersion": "3.4.16",
  "updatedAt": "2024-10-10T00:23:04.960Z",
  "networkType": "ethereum",
  "devdoc": {
    "kind": "dev",
    "methods": {},
    "version": 1
  },
  "userdoc": {
    "kind": "user",
    "methods": {},
    "version": 1
  }
}