{
  "contractName": "violation",
  "abi": [
    {
      "inputs": [],
      "stateMutability": "nonpayable",
      "type": "constructor"
    },
    {
      "anonymous": false,
      "inputs": [
        {
          "indexed": false,
          "internalType": "uint256",
          "name": "id",
          "type": "uint256"
        },
        {
          "indexed": false,
          "internalType": "address",
          "name": "violator",
          "type": "address"
        },
        {
          "indexed": false,
          "internalType": "string",
          "name": "violatorCnic",
          "type": "string"
        },
        {
          "indexed": false,
          "internalType": "string",
          "name": "violatorName",
          "type": "string"
        },
        {
          "indexed": false,
          "internalType": "address",
          "name": "warden",
          "type": "address"
        },
        {
          "indexed": false,
          "internalType": "string",
          "name": "wardenUserName",
          "type": "string"
        },
        {
          "indexed": false,
          "internalType": "string",
          "name": "violationDetails",
          "type": "string"
        },
        {
          "indexed": false,
          "internalType": "string",
          "name": "location",
          "type": "string"
        },
        {
          "indexed": false,
          "internalType": "uint256",
          "name": "date",
          "type": "uint256"
        },
        {
          "indexed": false,
          "internalType": "uint256",
          "name": "fineAmount",
          "type": "uint256"
        }
      ],
      "name": "ChallanGenerated",
      "type": "event"
    },
    {
      "anonymous": false,
      "inputs": [
        {
          "indexed": false,
          "internalType": "uint256",
          "name": "id",
          "type": "uint256"
        }
      ],
      "name": "ChallanTerminated",
      "type": "event"
    },
    {
      "anonymous": false,
      "inputs": [
        {
          "indexed": false,
          "internalType": "uint256",
          "name": "id",
          "type": "uint256"
        },
        {
          "indexed": false,
          "internalType": "string",
          "name": "violationDetails",
          "type": "string"
        },
        {
          "indexed": false,
          "internalType": "uint256",
          "name": "fineAmount",
          "type": "uint256"
        }
      ],
      "name": "ChallanUpdated",
      "type": "event"
    },
    {
      "inputs": [],
      "name": "challanCounter",
      "outputs": [
        {
          "internalType": "uint256",
          "name": "",
          "type": "uint256"
        }
      ],
      "stateMutability": "view",
      "type": "function",
      "constant": true
    },
    {
      "inputs": [
        {
          "internalType": "uint256",
          "name": "",
          "type": "uint256"
        }
      ],
      "name": "challans",
      "outputs": [
        {
          "internalType": "uint256",
          "name": "id",
          "type": "uint256"
        },
        {
          "internalType": "address",
          "name": "violator",
          "type": "address"
        },
        {
          "internalType": "string",
          "name": "violatorCnic",
          "type": "string"
        },
        {
          "internalType": "string",
          "name": "violatorName",
          "type": "string"
        },
        {
          "internalType": "address",
          "name": "warden",
          "type": "address"
        },
        {
          "internalType": "string",
          "name": "wardenUserName",
          "type": "string"
        },
        {
          "internalType": "string",
          "name": "violationDetails",
          "type": "string"
        },
        {
          "internalType": "string",
          "name": "location",
          "type": "string"
        },
        {
          "internalType": "uint256",
          "name": "date",
          "type": "uint256"
        },
        {
          "internalType": "uint256",
          "name": "fineAmount",
          "type": "uint256"
        },
        {
          "internalType": "bool",
          "name": "isTerminated",
          "type": "bool"
        }
      ],
      "stateMutability": "view",
      "type": "function",
      "constant": true
    },
    {
      "inputs": [
        {
          "internalType": "string",
          "name": "",
          "type": "string"
        }
      ],
      "name": "violationFines",
      "outputs": [
        {
          "internalType": "uint256",
          "name": "",
          "type": "uint256"
        }
      ],
      "stateMutability": "view",
      "type": "function",
      "constant": true
    },
    {
      "inputs": [
        {
          "internalType": "address",
          "name": "_violator",
          "type": "address"
        },
        {
          "internalType": "string",
          "name": "_violatorCnic",
          "type": "string"
        },
        {
          "internalType": "string",
          "name": "_violatorName",
          "type": "string"
        },
        {
          "internalType": "string",
          "name": "_violationDetails",
          "type": "string"
        },
        {
          "internalType": "string",
          "name": "_location",
          "type": "string"
        },
        {
          "internalType": "uint256",
          "name": "_date",
          "type": "uint256"
        }
      ],
      "name": "generateChallan",
      "outputs": [],
      "stateMutability": "nonpayable",
      "type": "function"
    },
    {
      "inputs": [
        {
          "internalType": "uint256",
          "name": "_id",
          "type": "uint256"
        }
      ],
      "name": "getChallan",
      "outputs": [
        {
          "internalType": "uint256",
          "name": "id",
          "type": "uint256"
        },
        {
          "internalType": "address",
          "name": "violator",
          "type": "address"
        },
        {
          "internalType": "string",
          "name": "violatorCnic",
          "type": "string"
        },
        {
          "internalType": "string",
          "name": "violatorName",
          "type": "string"
        },
        {
          "internalType": "address",
          "name": "warden",
          "type": "address"
        },
        {
          "internalType": "string",
          "name": "wardenUserName",
          "type": "string"
        },
        {
          "internalType": "string",
          "name": "violationDetails",
          "type": "string"
        },
        {
          "internalType": "string",
          "name": "location",
          "type": "string"
        },
        {
          "internalType": "uint256",
          "name": "date",
          "type": "uint256"
        },
        {
          "internalType": "uint256",
          "name": "fineAmount",
          "type": "uint256"
        },
        {
          "internalType": "bool",
          "name": "isTerminated",
          "type": "bool"
        }
      ],
      "stateMutability": "view",
      "type": "function",
      "constant": true
    },
    {
      "inputs": [
        {
          "internalType": "uint256",
          "name": "_id",
          "type": "uint256"
        },
        {
          "internalType": "string",
          "name": "_violationDetails",
          "type": "string"
        }
      ],
      "name": "updateChallan",
      "outputs": [],
      "stateMutability": "nonpayable",
      "type": "function"
    },
    {
      "inputs": [
        {
          "internalType": "uint256",
          "name": "_id",
          "type": "uint256"
        }
      ],
      "name": "terminateChallan",
      "outputs": [],
      "stateMutability": "nonpayable",
      "type": "function"
    }
  ],
  "bytecode": "0x6080604090808252346100e557602e81675370656564696e6760c01b61019093526101f46028600292836008820152205560c860278551665061726b696e6760c81b815283600782015220556064602b85516a139bc814d9585d18995b1d60aa1b815283600b8201522055610320603885517f54726166666963205369676e616c2056696f6c6174696f6e00000000000000008152836018820152205561012c602985516857726f6e672057617960b81b815283600982015220558351906d54696e7465642057696e646f777360901b8252600e82015220555161135590816100eb8239f35b600080fdfe6080604052600436101561001257600080fd5b60003560e01c80635146b42f14610ec957806396ab4bab14610e6d5780639c1cfb6114610dc3578063c0dcdd8914610abd578063e4f2266d14610a9f578063e6a23091146101875763fef88e971461006957600080fd5b346101825760203660031901126101825760043580151580610176575b61008f906112da565b6000198101818111610160576100a490611167565b5060048101546001600160a01b031633036100f557600a01805460ff191660011790556040519081527fd4c7402b4f900bcb67a96ed6052c481de7c7015122b904145ad8dd766e6c3d4e90602090a1005b60405162461bcd60e51b815260206004820152603760248201527f4f6e6c79207468652077617264656e2077686f2069737375656420746865206360448201527f68616c6c616e2063616e207465726d696e6174652069740000000000000000006064820152608490fd5b634e487b7160e01b600052601160045260246000fd5b50600154811115610086565b600080fd5b346101825760c0366003190112610182576004356001600160a01b0381168103610182576024356001600160401b038111610182576101ca903690600401611111565b906044356001600160401b038111610182576101ea903690600401611111565b916064356001600160401b0381116101825761020a903690600401611111565b926084356001600160401b0381116101825761022a903690600401611111565b60405191610258865193602081818a019661024681838a610ff7565b81016002815203019020541515611295565b6001549260001984146101605760206102839160018601600155604051809381928b51928391610ff7565b81016002815203019020549260016040519161029e836110d4565b01815260018060a01b03861660208201528460408201528160608201523360808201526040518060208101106001600160401b0360208301111761073357602081016040526000815260a08201528660c08201528260e082015260a43561010082015283610120820152600061014082015260005468010000000000000000811015610733578060016103349201600055611167565b610a8957815181556001810160018060a01b036020840151166bffffffffffffffffffffffff60a01b82541617905560408201518051906001600160401b03821161073357819061038860028501546111b5565b601f8111610a36575b50602090601f83116001146109c4576000926109b9575b50508160011b916000199060031b1c19161760028201555b60608201518051906001600160401b0382116107335781906103e560038501546111b5565b601f8111610966575b50602090601f83116001146108f4576000926108e9575b50508160011b916000199060031b1c19161760038201555b6004810160018060a01b036080840151166bffffffffffffffffffffffff60a01b82541617905560a08201518051906001600160401b03821161073357819061046960058501546111b5565b601f8111610896575b50602090601f831160011461082457600092610819575b50508160011b916000199060031b1c19161760058201555b60c08201518051906001600160401b0382116107335781906104c660068501546111b5565b601f81116107c6575b50602090601f831160011461075457600092610749575b50508160011b916000199060031b1c19161760068201555b60e08201518051906001600160401b0382116107335761052160078401546111b5565b601f81116106ec575b50602090601f8311600114610646579461061894610140600a7f36f804def7fc5084eb9093a9ac04f11d5d9cab36a2c3c66f8fdf6e1998b677e39d96866020976105f7976106269d9c60009261063b575b50508160011b916000199060031b1c19161760078201555b6101008401516008820155610120840151600982015501910151151560ff801983541691161790556105e9600154996040519b8c9b8c5260018060a01b0316858c015261014060408c01526101408b019061101a565b9089820360608b015261101a565b336080890152818882038060a08b0152600083520160c0890152019061101a565b9084820360e086015261101a565b9060a4356101008401526101208301520390a1005b01519050388061057b565b906007840160005260206000209160005b601f19851681106106d4575094610140600a7f36f804def7fc5084eb9093a9ac04f11d5d9cab36a2c3c66f8fdf6e1998b677e39d966001876105f7976106269d9c976106189c60209b601f198116106106bb575b505050811b016007820155610593565b015160001960f88460031b161c191690553880806106ab565b91926020600181928685015181550194019201610657565b600784016000526020600020601f840160051c81016020851061072c575b601f830160051c8201811061072057505061052a565b6000815560010161070a565b508061070a565b634e487b7160e01b600052604160045260246000fd5b015190508a806104e6565b9250600684016000526020600020906000935b601f19841685106107ab576001945083601f19811610610792575b505050811b0160068201556104fe565b015160001960f88460031b161c191690558a8080610782565b81810151835560209485019460019093019290910190610767565b909150600684016000526020600020601f840160051c810160208510610812575b90849392915b601f830160051c820181106108035750506104cf565b600081558594506001016107ed565b50806107e7565b015190508a80610489565b9250600584016000526020600020906000935b601f198416851061087b576001945083601f19811610610862575b505050811b0160058201556104a1565b015160001960f88460031b161c191690558a8080610852565b81810151835560209485019460019093019290910190610837565b909150600584016000526020600020601f840160051c8101602085106108e2575b90849392915b601f830160051c820181106108d3575050610472565b600081558594506001016108bd565b50806108b7565b015190508a80610405565b9250600384016000526020600020906000935b601f198416851061094b576001945083601f19811610610932575b505050811b01600382015561041d565b015160001960f88460031b161c191690558a8080610922565b81810151835560209485019460019093019290910190610907565b909150600384016000526020600020601f840160051c8101602085106109b2575b90849392915b601f830160051c820181106109a35750506103ee565b6000815585945060010161098d565b5080610987565b015190508a806103a8565b9250600284016000526020600020906000935b601f1984168510610a1b576001945083601f19811610610a02575b505050811b0160028201556103c0565b015160001960f88460031b161c191690558a80806109f2565b818101518355602094850194600190930192909101906109d7565b909150600284016000526020600020601f840160051c810160208510610a82575b90849392915b601f830160051c82018110610a73575050610391565b60008155859450600101610a5d565b5080610a57565b634e487b7160e01b600052600060045260246000fd5b34610182576000366003190112610182576020600154604051908152f35b34610182576040366003190112610182576004356001600160401b0360243581811161018257610af1903690600401611111565b82151580610db7575b610b03906112da565b6000199183830184811161016057610b1a90611167565b509060ff600a83015416610d5e5760405193835191610b4660209687818189019661024681838a610ff7565b60048401546001600160a01b03163303610cfc576006840191855191821161073357610b7283546111b5565b601f8111610cb6575b5086601f8311600114610c2157610c0b947fd88cd3fc9322ccf50df7dec6797866a2d3b8f4c45b92303b1a2c61dc1da543309997948460099895610be4958c95600092610c16575b508260011b9260031b1c19161790555b604051809381928751928391610ff7565b8101600281520301902054938491015560606040519586958652850152606084019061101a565b9060408301520390a1005b89015191508e610bc3565b90601f1983169184600052886000209260005b818110610c9f575094600185610be4958c95610c0b9a957fd88cd3fc9322ccf50df7dec6797866a2d3b8f4c45b92303b1a2c61dc1da543309f9d9a9960099d9a10610c87575b505050811b019055610bd3565b8a01519060f88460031b161c191690558d8080610c7a565b91938a60018192878d015181550195019201610c34565b8360005287600020601f840160051c810191898510610cf2575b601f0160051c01905b818110610ce65750610b7b565b60008155600101610cd9565b9091508190610cd0565b60405162461bcd60e51b815260048101879052603460248201527f4f6e6c79207468652077617264656e2077686f206973737565642074686520636044820152731a185b1b185b8818d85b881d5c19185d19481a5d60621b6064820152608490fd5b60405162461bcd60e51b815260206004820152602b60248201527f4368616c6c616e206973207465726d696e6174656420616e642063616e6e6f7460448201526a081899481d5c19185d195960aa1b6064820152608490fd5b50600154831115610afa565b346101825760203660031901126101825760043560005481101561018257610dea90611167565b50805460018201546001600160a01b0390811692610e699190610e0f600282016111ef565b91610e1c600383016111ef565b90600483015416610e2f600584016111ef565b610e3b600685016111ef565b90610e48600786016111ef565b9260088601549460ff600a600989015498015416976040519b8c9b8c61103f565b0390f35b34610182576020366003190112610182576004356001600160401b03811161018257610eb66020610ea381933690600401611111565b8160405193828580945193849201610ff7565b8101600281520301902054604051908152f35b346101825760203660031901126101825760043580151580610feb575b610eef906112da565b600019810190811161016057610f0490611167565b50604051610f11816110d4565b81548152610e6960018060a01b039161012061010060e0856001880154169560208501968752610f43600289016111ef565b9760408601988952610f57600382016111ef565b91606087019283528060048301541660808801908152610f79600584016111ef565b9160a089019283528060ff600a610f92600688016111ef565b9660c08d019788528c610fa7600783016111ef565b9a8b9101528c60088201549b8c9101528c60098201549c8d9101520154161515998a610140820152519b51169b51945191511691519251936040519b8c9b8c61103f565b50600154811115610ee6565b60005b83811061100a5750506000910152565b8181015183820152602001610ffa565b9060209161103381518092818552858086019101610ff7565b601f01601f1916010190565b999692956110a4926110908c6101409c9f9e9b9894976110826110c09b6110b29a845260018060a01b03809616602085015261016080604086015284019061101a565b91606081840391015261101a565b921660808c01528a820360a08c015261101a565b9088820360c08a015261101a565b9086820360e088015261101a565b956101008501526101208401521515910152565b61016081019081106001600160401b0382111761073357604052565b90601f801991011681019081106001600160401b0382111761073357604052565b81601f82011215610182578035906001600160401b0382116107335760405192611145601f8401601f1916602001856110f0565b8284526020838301011161018257816000926020809301838601378301015290565b9060009182548110156111a157600b90838052027f290decd9548b62a8d60345a988386fc84ba6bc95484008f6362f93160ef3e563019190565b634e487b7160e01b83526032600452602483fd5b90600182811c921680156111e5575b60208310146111cf57565b634e487b7160e01b600052602260045260246000fd5b91607f16916111c4565b9060405191826000825492611203846111b5565b908184526001948581169081600014611272575060011461122f575b505061122d925003836110f0565b565b9093915060005260209081600020936000915b81831061125a57505061122d9350820101388061121f565b85548884018501529485019487945091830191611242565b91505061122d94506020925060ff191682840152151560051b820101388061121f565b1561129c57565b60405162461bcd60e51b8152602060048201526016602482015275496e76616c69642076696f6c6174696f6e207479706560501b6044820152606490fd5b156112e157565b60405162461bcd60e51b815260206004820152601660248201527510da185b1b185b88191bd95cc81b9bdd08195e1a5cdd60521b6044820152606490fdfea264697066735822122033081967d8d6caf4f20c335ee02b0fa9219bbcf43bc35bad502e53df6e9c6f1764736f6c63430008130033",
  "immutableReferences": {},
  "source": "// SPDX-License-Identifier: MIT\r\npragma solidity ^0.8.0;\r\n\r\ncontract violation {\r\n    // Struct to store the details of a challan\r\n    struct Challan {\r\n        uint256 id;\r\n        address violator;\r\n        string violatorCnic;     // CNIC of the violator\r\n        string violatorName;     // Name of the violator\r\n        address warden;          // Address of the warden issuing the challan\r\n        string wardenUserName;   // Username of the warden issuing the challan\r\n        string violationDetails; // Details of the violation\r\n        string location;         // Location where violation occurred\r\n        uint256 date;            // Timestamp of the violation\r\n        uint256 fineAmount;      // Fine amount for the violation\r\n        bool isTerminated;       // Status if challan is terminated\r\n    }\r\n\r\n    // Array to store all challans\r\n    Challan[] public challans;\r\n    // Counter for challan IDs\r\n    uint public challanCounter;\r\n\r\n    // Pre-defined violation details and their corresponding fines\r\n    mapping(string => uint256) public violationFines;\r\n\r\n    // Event to emit when a new challan is generated\r\n    event ChallanGenerated(\r\n        uint id,\r\n        address violator,\r\n        string violatorCnic,\r\n        string violatorName,\r\n        address warden,\r\n        string wardenUserName,\r\n        string violationDetails,\r\n        string location,\r\n        uint256 date,\r\n        uint fineAmount\r\n    );\r\n    \r\n    // Event to emit when a challan is updated\r\n    event ChallanUpdated(uint id, string violationDetails, uint fineAmount);\r\n    \r\n    // Event to emit when a challan is terminated\r\n    event ChallanTerminated(uint id);\r\n\r\n    // Constructor to initialize violation details with fines\r\n    constructor() {\r\n        violationFines[\"Speeding\"] = 500;\r\n        violationFines[\"Parking\"] = 200;\r\n        violationFines[\"No Seatbelt\"] = 100;\r\n        violationFines[\"Traffic Signal Violation\"] = 800;\r\n        violationFines[\"Wrong Way\"] = 300;\r\n        violationFines[\"Tinted Windows\"] = 400;\r\n        // Add more predefined violations and fines as needed\r\n    }\r\n\r\n    // Function to generate a new challan\r\n    function generateChallan(\r\n        address _violator,\r\n        string memory _violatorCnic,\r\n        string memory _violatorName,\r\n        string memory _violationDetails,\r\n        string memory _location,\r\n        uint256 _date\r\n    ) public {\r\n        // Ensure the violation type exists in the pre-defined list\r\n        require(violationFines[_violationDetails] > 0, \"Invalid violation type\");\r\n\r\n        challanCounter++;\r\n        uint fineAmount = violationFines[_violationDetails];  // Fetch fine based on violation type\r\n\r\n        Challan memory newChallan = Challan({\r\n            id: challanCounter,\r\n            violator: _violator,\r\n            violatorCnic: _violatorCnic,\r\n            violatorName: _violatorName,\r\n            warden: msg.sender,  // The warden issuing the challan is the sender of the transaction\r\n            wardenUserName: \"\",  // We leave the username empty for now; it can be handled separately\r\n            violationDetails: _violationDetails,\r\n            location: _location,\r\n            date: _date,\r\n            fineAmount: fineAmount,\r\n            isTerminated: false\r\n        });\r\n        challans.push(newChallan);  // Add the new challan to the array\r\n\r\n        emit ChallanGenerated(\r\n            challanCounter,\r\n            _violator,\r\n            _violatorCnic,\r\n            _violatorName,\r\n            msg.sender,  // The warden issuing the challan\r\n            \"\",  // Empty username for now\r\n            _violationDetails,\r\n            _location,\r\n            _date,\r\n            fineAmount\r\n        );\r\n    }\r\n\r\n    // Function to get a challan's details\r\n    function getChallan(\r\n        uint _id\r\n    )\r\n        external\r\n        view\r\n        returns (\r\n            uint id,\r\n            address violator,\r\n            string memory violatorCnic,\r\n            string memory violatorName,\r\n            address warden,\r\n            string memory wardenUserName,\r\n            string memory violationDetails,\r\n            string memory location,\r\n            uint256 date,\r\n            uint fineAmount,\r\n            bool isTerminated\r\n        )\r\n    {\r\n        // Ensure the challan exists\r\n        require(_id > 0 && _id <= challanCounter, \"Challan does not exist\");\r\n\r\n        // Fetch the challan from the array\r\n        Challan memory challan = challans[_id - 1];\r\n\r\n        // Return the challan details\r\n        return (\r\n            challan.id,\r\n            challan.violator,\r\n            challan.violatorCnic,\r\n            challan.violatorName,\r\n            challan.warden,\r\n            challan.wardenUserName,\r\n            challan.violationDetails,\r\n            challan.location,\r\n            challan.date,\r\n            challan.fineAmount,\r\n            challan.isTerminated\r\n        );\r\n    }\r\n\r\n    // Function to update a challan's details\r\n    function updateChallan(\r\n        uint _id,\r\n        string memory _violationDetails\r\n    ) public {\r\n        // Ensure the challan exists\r\n        require(_id > 0 && _id <= challanCounter, \"Challan does not exist\");\r\n\r\n        // Fetch the challan from the array\r\n        Challan storage challan = challans[_id - 1];\r\n\r\n        // Ensure the challan is not terminated\r\n        require(!challan.isTerminated, \"Challan is terminated and cannot be updated\");\r\n\r\n        // Ensure the new violation type exists in the pre-defined list\r\n        require(violationFines[_violationDetails] > 0, \"Invalid violation type\");\r\n\r\n        // Ensure only the original warden can update the challan\r\n        require(challan.warden == msg.sender, \"Only the warden who issued the challan can update it\");\r\n\r\n        // Update the challan details\r\n        challan.violationDetails = _violationDetails;\r\n        challan.fineAmount = violationFines[_violationDetails];\r\n\r\n        emit ChallanUpdated(_id, _violationDetails, challan.fineAmount);\r\n    }\r\n\r\n    // Function to terminate a challan\r\n    function terminateChallan(uint _id) public {\r\n        // Ensure the challan exists\r\n        require(_id > 0 && _id <= challanCounter, \"Challan does not exist\");\r\n\r\n        // Fetch the challan from the array\r\n        Challan storage challan = challans[_id - 1];\r\n\r\n        // Ensure only the original warden can terminate the challan\r\n        require(challan.warden == msg.sender, \"Only the warden who issued the challan can terminate it\");\r\n\r\n        // Terminate the challan\r\n        challan.isTerminated = true;\r\n\r\n        emit ChallanTerminated(_id);\r\n    }\r\n}\r\n",
  "sourcePath": "D:\\naufil\\FineFlow-FYP\\Contracts\\contracts\\violation.sol",
  "compiler": {
    "name": "solc",
    "version": "0.8.19+commit.7dd6d404.Emscripten.clang"
  },
  "schemaVersion": "3.4.16",
  "updatedAt": "2024-09-29T09:59:38.162Z",
  "networkType": "ethereum",
  "devdoc": {
    "kind": "dev",
    "methods": {},
    "version": 1
  },
  "userdoc": {
    "kind": "user",
    "methods": {},
    "version": 1
  }
}