{
  "contractName": "violation",
  "abi": [
    {
      "inputs": [
        {
          "internalType": "address",
          "name": "_violationCounterAddress",
          "type": "address"
        }
      ],
      "stateMutability": "nonpayable",
      "type": "constructor"
    },
    {
      "anonymous": false,
      "inputs": [
        {
          "indexed": false,
          "internalType": "uint256",
          "name": "id",
          "type": "uint256"
        },
        {
          "indexed": false,
          "internalType": "address",
          "name": "violator",
          "type": "address"
        },
        {
          "indexed": false,
          "internalType": "string",
          "name": "violatorCnic",
          "type": "string"
        },
        {
          "indexed": false,
          "internalType": "string",
          "name": "violatorName",
          "type": "string"
        },
        {
          "indexed": false,
          "internalType": "address",
          "name": "warden",
          "type": "address"
        },
        {
          "indexed": false,
          "internalType": "string",
          "name": "wardenUserName",
          "type": "string"
        },
        {
          "indexed": false,
          "internalType": "string",
          "name": "violationDetails",
          "type": "string"
        },
        {
          "indexed": false,
          "internalType": "string",
          "name": "location",
          "type": "string"
        },
        {
          "indexed": false,
          "internalType": "uint256",
          "name": "date",
          "type": "uint256"
        },
        {
          "indexed": false,
          "internalType": "uint256",
          "name": "fineAmount",
          "type": "uint256"
        },
        {
          "indexed": false,
          "internalType": "string",
          "name": "registrationNumber",
          "type": "string"
        }
      ],
      "name": "ChallanGenerated",
      "type": "event"
    },
    {
      "anonymous": false,
      "inputs": [
        {
          "indexed": false,
          "internalType": "uint256",
          "name": "id",
          "type": "uint256"
        }
      ],
      "name": "ChallanTerminated",
      "type": "event"
    },
    {
      "anonymous": false,
      "inputs": [
        {
          "indexed": false,
          "internalType": "uint256",
          "name": "id",
          "type": "uint256"
        },
        {
          "indexed": false,
          "internalType": "string",
          "name": "violationDetails",
          "type": "string"
        },
        {
          "indexed": false,
          "internalType": "uint256",
          "name": "fineAmount",
          "type": "uint256"
        }
      ],
      "name": "ChallanUpdated",
      "type": "event"
    },
    {
      "inputs": [],
      "name": "admin",
      "outputs": [
        {
          "internalType": "address",
          "name": "",
          "type": "address"
        }
      ],
      "stateMutability": "view",
      "type": "function",
      "constant": true
    },
    {
      "inputs": [],
      "name": "challanCounter",
      "outputs": [
        {
          "internalType": "uint256",
          "name": "",
          "type": "uint256"
        }
      ],
      "stateMutability": "view",
      "type": "function",
      "constant": true
    },
    {
      "inputs": [
        {
          "internalType": "uint256",
          "name": "",
          "type": "uint256"
        }
      ],
      "name": "challans",
      "outputs": [
        {
          "internalType": "uint256",
          "name": "id",
          "type": "uint256"
        },
        {
          "internalType": "address",
          "name": "violator",
          "type": "address"
        },
        {
          "internalType": "string",
          "name": "violatorCnic",
          "type": "string"
        },
        {
          "internalType": "string",
          "name": "violatorName",
          "type": "string"
        },
        {
          "internalType": "address",
          "name": "warden",
          "type": "address"
        },
        {
          "internalType": "string",
          "name": "wardenUserName",
          "type": "string"
        },
        {
          "internalType": "string",
          "name": "violationDetails",
          "type": "string"
        },
        {
          "internalType": "string",
          "name": "location",
          "type": "string"
        },
        {
          "internalType": "uint256",
          "name": "date",
          "type": "uint256"
        },
        {
          "internalType": "uint256",
          "name": "fineAmount",
          "type": "uint256"
        },
        {
          "internalType": "bool",
          "name": "isTerminated",
          "type": "bool"
        },
        {
          "internalType": "string",
          "name": "registrationNumber",
          "type": "string"
        }
      ],
      "stateMutability": "view",
      "type": "function",
      "constant": true
    },
    {
      "inputs": [],
      "name": "violationCounter",
      "outputs": [
        {
          "internalType": "contract ViolationCounter",
          "name": "",
          "type": "address"
        }
      ],
      "stateMutability": "view",
      "type": "function",
      "constant": true
    },
    {
      "inputs": [
        {
          "internalType": "string",
          "name": "",
          "type": "string"
        }
      ],
      "name": "violationFines",
      "outputs": [
        {
          "internalType": "uint256",
          "name": "",
          "type": "uint256"
        }
      ],
      "stateMutability": "view",
      "type": "function",
      "constant": true
    },
    {
      "inputs": [
        {
          "internalType": "address",
          "name": "_violator",
          "type": "address"
        },
        {
          "internalType": "string",
          "name": "_violatorCnic",
          "type": "string"
        },
        {
          "internalType": "string",
          "name": "_violatorName",
          "type": "string"
        },
        {
          "internalType": "string",
          "name": "_violationDetails",
          "type": "string"
        },
        {
          "internalType": "string",
          "name": "_location",
          "type": "string"
        },
        {
          "internalType": "uint256",
          "name": "_date",
          "type": "uint256"
        },
        {
          "internalType": "string",
          "name": "_registrationNumber",
          "type": "string"
        }
      ],
      "name": "generateChallan",
      "outputs": [],
      "stateMutability": "nonpayable",
      "type": "function"
    },
    {
      "inputs": [
        {
          "internalType": "uint256",
          "name": "_id",
          "type": "uint256"
        }
      ],
      "name": "getChallan",
      "outputs": [
        {
          "internalType": "uint256",
          "name": "id",
          "type": "uint256"
        },
        {
          "internalType": "address",
          "name": "violator",
          "type": "address"
        },
        {
          "internalType": "string",
          "name": "violatorCnic",
          "type": "string"
        },
        {
          "internalType": "string",
          "name": "violatorName",
          "type": "string"
        },
        {
          "internalType": "address",
          "name": "warden",
          "type": "address"
        },
        {
          "internalType": "string",
          "name": "wardenUserName",
          "type": "string"
        },
        {
          "internalType": "string",
          "name": "violationDetails",
          "type": "string"
        },
        {
          "internalType": "string",
          "name": "location",
          "type": "string"
        },
        {
          "internalType": "uint256",
          "name": "date",
          "type": "uint256"
        },
        {
          "internalType": "uint256",
          "name": "fineAmount",
          "type": "uint256"
        },
        {
          "internalType": "bool",
          "name": "isTerminated",
          "type": "bool"
        },
        {
          "internalType": "string",
          "name": "registrationNumber",
          "type": "string"
        }
      ],
      "stateMutability": "view",
      "type": "function",
      "constant": true
    },
    {
      "inputs": [],
      "name": "getAllChallans",
      "outputs": [
        {
          "components": [
            {
              "internalType": "uint256",
              "name": "id",
              "type": "uint256"
            },
            {
              "internalType": "address",
              "name": "violator",
              "type": "address"
            },
            {
              "internalType": "string",
              "name": "violatorCnic",
              "type": "string"
            },
            {
              "internalType": "string",
              "name": "violatorName",
              "type": "string"
            },
            {
              "internalType": "address",
              "name": "warden",
              "type": "address"
            },
            {
              "internalType": "string",
              "name": "wardenUserName",
              "type": "string"
            },
            {
              "internalType": "string",
              "name": "violationDetails",
              "type": "string"
            },
            {
              "internalType": "string",
              "name": "location",
              "type": "string"
            },
            {
              "internalType": "uint256",
              "name": "date",
              "type": "uint256"
            },
            {
              "internalType": "uint256",
              "name": "fineAmount",
              "type": "uint256"
            },
            {
              "internalType": "bool",
              "name": "isTerminated",
              "type": "bool"
            },
            {
              "internalType": "string",
              "name": "registrationNumber",
              "type": "string"
            }
          ],
          "internalType": "struct violation.Challan[]",
          "name": "",
          "type": "tuple[]"
        }
      ],
      "stateMutability": "view",
      "type": "function",
      "constant": true
    },
    {
      "inputs": [
        {
          "internalType": "address",
          "name": "_citizen",
          "type": "address"
        }
      ],
      "name": "getChallansByCitizen",
      "outputs": [
        {
          "components": [
            {
              "internalType": "uint256",
              "name": "id",
              "type": "uint256"
            },
            {
              "internalType": "address",
              "name": "violator",
              "type": "address"
            },
            {
              "internalType": "string",
              "name": "violatorCnic",
              "type": "string"
            },
            {
              "internalType": "string",
              "name": "violatorName",
              "type": "string"
            },
            {
              "internalType": "address",
              "name": "warden",
              "type": "address"
            },
            {
              "internalType": "string",
              "name": "wardenUserName",
              "type": "string"
            },
            {
              "internalType": "string",
              "name": "violationDetails",
              "type": "string"
            },
            {
              "internalType": "string",
              "name": "location",
              "type": "string"
            },
            {
              "internalType": "uint256",
              "name": "date",
              "type": "uint256"
            },
            {
              "internalType": "uint256",
              "name": "fineAmount",
              "type": "uint256"
            },
            {
              "internalType": "bool",
              "name": "isTerminated",
              "type": "bool"
            },
            {
              "internalType": "string",
              "name": "registrationNumber",
              "type": "string"
            }
          ],
          "internalType": "struct violation.Challan[]",
          "name": "",
          "type": "tuple[]"
        }
      ],
      "stateMutability": "view",
      "type": "function",
      "constant": true
    },
    {
      "inputs": [
        {
          "internalType": "address",
          "name": "_warden",
          "type": "address"
        }
      ],
      "name": "getChallansByWarden",
      "outputs": [
        {
          "components": [
            {
              "internalType": "uint256",
              "name": "id",
              "type": "uint256"
            },
            {
              "internalType": "address",
              "name": "violator",
              "type": "address"
            },
            {
              "internalType": "string",
              "name": "violatorCnic",
              "type": "string"
            },
            {
              "internalType": "string",
              "name": "violatorName",
              "type": "string"
            },
            {
              "internalType": "address",
              "name": "warden",
              "type": "address"
            },
            {
              "internalType": "string",
              "name": "wardenUserName",
              "type": "string"
            },
            {
              "internalType": "string",
              "name": "violationDetails",
              "type": "string"
            },
            {
              "internalType": "string",
              "name": "location",
              "type": "string"
            },
            {
              "internalType": "uint256",
              "name": "date",
              "type": "uint256"
            },
            {
              "internalType": "uint256",
              "name": "fineAmount",
              "type": "uint256"
            },
            {
              "internalType": "bool",
              "name": "isTerminated",
              "type": "bool"
            },
            {
              "internalType": "string",
              "name": "registrationNumber",
              "type": "string"
            }
          ],
          "internalType": "struct violation.Challan[]",
          "name": "",
          "type": "tuple[]"
        }
      ],
      "stateMutability": "view",
      "type": "function",
      "constant": true
    },
    {
      "inputs": [
        {
          "internalType": "uint256",
          "name": "_id",
          "type": "uint256"
        },
        {
          "internalType": "string",
          "name": "_violationDetails",
          "type": "string"
        }
      ],
      "name": "updateChallan",
      "outputs": [],
      "stateMutability": "nonpayable",
      "type": "function"
    },
    {
      "inputs": [
        {
          "internalType": "uint256",
          "name": "_id",
          "type": "uint256"
        }
      ],
      "name": "terminateChallan",
      "outputs": [],
      "stateMutability": "nonpayable",
      "type": "function"
    }
  ],
  "bytecode": "0x60803461038e57601f611e7f38819003918201601f191683019291906001600160401b0384118385101761039357816020928492604096875283398101031261038e57516001600160a01b0381169081900361038e5760018060a01b031933816003541617600355600454161760045560348082516d5370656564696e6720284c54562960901b8152602f603e602e60029384600e8201526101f4918291205560c8602d88516c5061726b696e6720284c54562960981b815286600d8201522055606460318851704e6f205365617462656c7420284c54562960781b8152866011820152205586517f54726166666963205369676e616c2056696f6c6174696f6e20284c5456290000815284601e820152610320928391205586516e57726f6e672057617920284c54562960881b815284600f82015261012c938491205586517f54696e7465642057696e646f777320284c54562900000000000000000000000081528460148201526101909687912055808588517f5370656564696e6720284d6f746f7262696b65290000000000000000000000008152866014820152205560c8603388517f5061726b696e6720284d6f746f7262696b652900000000000000000000000000815286601382015220556064603588517f4e6f2048656c6d657420284d6f746f7262696b652900000000000000000000008152866015820152205581604488517f54726166666963205369676e616c2056696f6c6174696f6e20284d6f746f7262815263696b652960e01b6020820152866024820152205582603588517f57726f6e672057617920284d6f746f7262696b652900000000000000000000008152866015820152205585603a88517f50696c6c696f6e20526964696e6720284d6f746f7262696b6529000000000000815286601a8201522055602e87516d5370656564696e6720284854562960901b815285600e820152205560c8602d87516c5061726b696e6720284854562960981b815285600d8201522055606460318751704e6f205365617462656c7420284854562960781b81528560118201522055603e86517f54726166666963205369676e616c2056696f6c6174696f6e2028485456290000815284601e8201522055602f85516e57726f6e672057617920284854562960881b815283600f82015220558351907f54696e7465642057696e646f777320284854562900000000000000000000000082526014820152205551611ad590816103aa8239f35b600080fd5b634e487b7160e01b600052604160045260246000fdfe6080604052600436101561001257600080fd5b6000803560e01c80631d735427146113735780633b4a4ead146112885780635146b42f146111c3578063811c8f7d1461113957806396ab4bab146110dc5780639c1cfb6114611022578063af5b236914610569578063c0dcdd891461022c578063e4f2266d1461020e578063e900aaba146101e5578063f851a440146101bc5763fef88e97146100a157600080fd5b346101b95760203660031901126101b957600435801515806101ad575b6100c7906118b7565b6000198101818111610199576100dc9061171f565b5060048101546001600160a01b0316330361012e57600a01805460ff191660011790556040519081527fd4c7402b4f900bcb67a96ed6052c481de7c7015122b904145ad8dd766e6c3d4e90602090a180f35b60405162461bcd60e51b815260206004820152603760248201527f4f6e6c79207468652077617264656e2077686f2069737375656420746865206360448201527f68616c6c616e2063616e207465726d696e6174652069740000000000000000006064820152608490fd5b634e487b7160e01b83526011600452602483fd5b506001548111156100be565b80fd5b50346101b957806003193601126101b9576003546040516001600160a01b039091168152602090f35b50346101b957806003193601126101b9576004546040516001600160a01b039091168152602090f35b50346101b957806003193601126101b9576020600154604051908152f35b50346101b95760403660031901126101b957600435906001600160401b03602435818111610565576102629036906004016116c9565b9280151580610559575b610275906118b7565b600019938185018281116105455761028c9061171f565b5060ff600a820154166104ec57604051938251906102c96020968781818801956102b781838961145e565b8101600281520301902054151561184d565b60048301546001600160a01b0316330361048a57835160068401918111610476576102f4825461176d565b601f8111610433575b508698601f82116001146103a4576009959361038d959383610366948b948d9e7fd88cd3fc9322ccf50df7dec6797866a2d3b8f4c45b92303b1a2c61dc1da543309e92610399575b508260011b9260031b1c19161790555b60405180938192875192839161145e565b81016002815203019020549384910155606060405195869586528501526060840190611481565b9060408301520390a180f35b890151915038610345565b82895287892099601f1983168a5b81811061041c5750936001847fd88cd3fc9322ccf50df7dec6797866a2d3b8f4c45b92303b1a2c61dc1da543309c9d8c9560099b99956103669861038d9c9a10610404575b505050811b019055610355565b8a01519060f88460031b161c191690553880806103f7565b919b8a600181928f8c01518155019d0192016103b2565b828952878920601f830160051c81019189841061046c575b601f0160051c01905b81811061046157506102fd565b898155600101610454565b909150819061044b565b634e487b7160e01b88526041600452602488fd5b60405162461bcd60e51b815260048101879052603460248201527f4f6e6c79207468652077617264656e2077686f206973737565642074686520636044820152731a185b1b185b8818d85b881d5c19185d19481a5d60621b6064820152608490fd5b60405162461bcd60e51b815260206004820152602b60248201527f4368616c6c616e206973207465726d696e6174656420616e642063616e6e6f7460448201526a081899481d5c19185d195960aa1b6064820152608490fd5b634e487b7160e01b85526011600452602485fd5b5060015481111561026c565b8280fd5b50346101b95760e03660031901126101b957610583611443565b6024356001600160401b038111610565576105a29036906004016116c9565b6044356001600160401b03811161101e576105c19036906004016116c9565b6064356001600160401b03811161101a576105e09036906004016116c9565b906084356001600160401b038111611016576106009036906004016116c9565b60c4356001600160401b0381116110125761061f9036906004016116c9565b926040519261063c825194602081818601976102b781838b61145e565b610662602061064c600154611892565b958660015560405180938192875192839161145e565b8101600281520301902054936040519061067b82611676565b815260018060a01b03881660208201528660408201528160608201523360808201526040518060208101106001600160401b03602083011117610ffe576020810160405289815260a08201528260c08201528360e082015260a435610100820152846101208201528861014082015285610160820152885468010000000000000000811015610ffe5780600161071392018b5561171f565b919091610fea57805182556001820160018060a01b036020830151166bffffffffffffffffffffffff60a01b82541617905560408101518051906001600160401b038211610ca657819061076a600286015461176d565b601f8111610f98575b50602090601f8311600114610f29578d92610f1e575b50508160011b916000199060031b1c19161760028301555b60608101518051906001600160401b038211610ca65781906107c6600386015461176d565b601f8111610ecc575b50602090601f8311600114610e5d578d92610e52575b50508160011b916000199060031b1c19161760038301555b6004820160018060a01b036080830151166bffffffffffffffffffffffff60a01b82541617905560a08101518051906001600160401b038211610ca6578190610849600586015461176d565b601f8111610e00575b50602090601f8311600114610d91578d92610d86575b50508160011b916000199060031b1c19161760058301555b60c08101518051906001600160401b038211610ca65781906108a5600686015461176d565b601f8111610d34575b50602090601f8311600114610cc5578d92610cba575b50508160011b916000199060031b1c19161760068301555b60e08101519081516001600160401b038111610ca6576108ff600785015461176d565b601f8111610c5f575b506020928c601f8311600114610beb5761016094909183610be0575b50508160011b916000199060031b1c19161760078401555b61010081015160088401556101208101516009840155600a8301610140820151151560ff8019835416911617905501518051906001600160401b038211610bcc5761098a600b84015461176d565b601f8111610b87575b50602090601f8311600114610b1a57600b92918c9183610b0f575b50508160011b916000199060031b1c1916179101555b6004546001600160a01b0316803b15610b0b5788604051809263ffc8e3db60e01b8252602060048301528183816109fe602482018a611481565b03925af18015610b0057610ad1575b50600154604080519182526001600160a01b039098166020820152610160978101889052968796610a4091880190611481565b8681036060880152610a5191611481565b3360808701528581038060a088015288825260200160c0870152602001610a7791611481565b84810360e0860152610a8891611481565b9060a435610100850152610120840152828103610140840152610aaa91611481565b037fcdd88e36db89107b9c33bbce5d996865cd3dff68e87852d54470bce5d7caca3891a180f35b6001600160401b038199929911610aec576040529638610a0d565b634e487b7160e01b82526041600452602482fd5b6040513d8b823e3d90fd5b8880fd5b0151905038806109ae565b90600b84018c5260208c20918c5b601f1985168110610b6f5750918391600193600b95601f19811610610b56575b505050811b019101556109c4565b015160001960f88460031b161c19169055388080610b48565b91926020600181928685015181550194019201610b28565b600b84018c5260208c20601f840160051c810160208510610bc5575b8d601f840160051c83018210610bbb57505050610993565b8155600101610ba3565b5080610ba3565b634e487b7160e01b8b52604160045260248bfd5b015190503880610924565b50909192600785018d5260208d20918d5b601f1985168110610c4757509183916001936101609695601f19811610610c2e575b505050811b01600784015561093c565b015160001960f88460031b161c19169055388080610c1e565b91926020600181928685015181550194019201610bfc565b600785018d5260208d20601f830160051c810160208410610c9f575b8e5b601f840160051c83018210610c9457505050610908565b81556001018e610c7d565b5080610c7b565b634e487b7160e01b8c52604160045260248cfd5b0151905038806108c4565b9250600685018d5260208d20908d935b601f1984168510610d19576001945083601f19811610610d00575b505050811b0160068301556108dc565b015160001960f88460031b161c19169055388080610cf0565b81810151835560209485019460019093019290910190610cd5565b909150600685018d5260208d20601f840160051c810160208510610d7f575b84939291908f5b601f840160051c83018210610d71575050506108ae565b81558594506001018f610d5a565b5080610d53565b015190503880610868565b9250600585018d5260208d20908d935b601f1984168510610de5576001945083601f19811610610dcc575b505050811b016005830155610880565b015160001960f88460031b161c19169055388080610dbc565b81810151835560209485019460019093019290910190610da1565b909150600585018d5260208d20601f840160051c810160208510610e4b575b84939291908f5b601f840160051c83018210610e3d57505050610852565b81558594506001018f610e26565b5080610e1f565b0151905038806107e5565b9250600385018d5260208d20908d935b601f1984168510610eb1576001945083601f19811610610e98575b505050811b0160038301556107fd565b015160001960f88460031b161c19169055388080610e88565b81810151835560209485019460019093019290910190610e6d565b909150600385018d5260208d20601f840160051c810160208510610f17575b84939291908f5b601f840160051c83018210610f09575050506107cf565b81558594506001018f610ef2565b5080610eeb565b015190503880610789565b9250600285018d5260208d20908d935b601f1984168510610f7d576001945083601f19811610610f64575b505050811b0160028301556107a1565b015160001960f88460031b161c19169055388080610f54565b81810151835560209485019460019093019290910190610f39565b909150600285018d5260208d20601f840160051c810160208510610fe3575b84939291908f5b601f840160051c83018210610fd557505050610773565b81558594506001018f610fbe565b5080610fb7565b634e487b7160e01b8a5260048a905260248afd5b634e487b7160e01b8a52604160045260248afd5b8680fd5b8580fd5b8480fd5b8380fd5b50346101b95760203660031901126101b95760043581548110156110d8576110499061171f565b50805460018201546001600160a01b03908116926110d4919061106e600282016117a7565b9161107b600383016117a7565b9060048301541661108e600584016117a7565b61109a600685016117a7565b6110a6600786016117a7565b916008860154936009870154956110c7600b60ff600a8b01541699016117a7565b986040519c8d9c8d6115cf565b0390f35b5080fd5b50346101b95760203660031901126101b957600435906001600160401b0382116101b95760206111268161111336600487016116c9565b816040519382858094519384920161145e565b8101600281520301902054604051908152f35b50346101b957806003193601126101b9578054611155816119bb565b9061116360405192836116a8565b8082528280527f290decd9548b62a8d60345a988386fc84ba6bc95484008f6362f93160ef3e5639260208084015b8383106111a657604051806110d487826114a6565b600c826001926111b5896118fc565b815201960192019194611191565b50346101b95760203660031901126101b957600435908115158061127c575b6111eb906118b7565b6000198201918211611268576112096112038361171f565b506118fc565b80516110d460018060a01b03806020850151169360408101519160608201519060808301511660a083015160c084015160e08501519161010086015193610120870151956101606101408901511515980151986040519c8d9c8d6115cf565b634e487b7160e01b81526011600452602490fd5b506001548211156111e2565b50346101b95760203660031901126101b9576112a2611443565b81546001600160a01b03929091831681805b84811061133957506112c5906119d2565b93825b8481106112dd57604051806110d488826114a6565b828260046112ea8461171f565b5001541614611302575b6112fd90611892565b6112c8565b926113316112fd916113166112038761171f565b611320828a611a75565b5261132b8189611a75565b50611892565b9390506112f4565b828660046113468461171f565b500154161461135e575b61135990611892565b6112b4565b9061136b61135991611892565b919050611350565b50346101b95760203660031901126101b95761138d611443565b81546001600160a01b03929091831681805b84811061140957506113b0906119d2565b93825b8481106113c857604051806110d488826114a6565b828260016113d58461171f565b50015416146113ed575b6113e890611892565b6113b3565b926114016113e8916113166112038761171f565b9390506113df565b828660016114168461171f565b500154161461142e575b61142990611892565b61139f565b9061143b61142991611892565b919050611420565b600435906001600160a01b038216820361145957565b600080fd5b60005b8381106114715750506000910152565b8181015183820152602001611461565b9060209161149a8151809281855285808601910161145e565b601f01601f1916010190565b602080820190808352835180925260409283810182858560051b8401019601946000925b8584106114db575050505050505090565b9091929394959685806115be600193603f198682030188528b5180518252611587611574611561888060a01b038088860151168887015261154161152e8d808801519061018080918b0152890190611481565b60608088015190898303908a0152611481565b9060809081870151169087015260a0808601519087830390880152611481565b60c0808501519086830390870152611481565b60e0808401519085830390860152611481565b9161010080830151908201526101208083015190820152610140808301511515908201526101608092015191818403910152611481565b9901940194019295949391906114ca565b989a9794909561163492611620611642966116739f9d9a96611612908e6116509c815260018060a01b038096166020820152610180908160408201520190611481565b8d810360608f015290611481565b921660808b015289820360a08b0152611481565b9087820360c0890152611481565b9085820360e0870152611481565b946101008401526101208301521515610140820152610160818403910152611481565b90565b61018081019081106001600160401b0382111761169257604052565b634e487b7160e01b600052604160045260246000fd5b90601f801991011681019081106001600160401b0382111761169257604052565b81601f82011215611459578035906001600160401b03821161169257604051926116fd601f8401601f1916602001856116a8565b8284526020838301011161145957816000926020809301838601378301015290565b90600091825481101561175957600c90838052027f290decd9548b62a8d60345a988386fc84ba6bc95484008f6362f93160ef3e563019190565b634e487b7160e01b83526032600452602483fd5b90600182811c9216801561179d575b602083101461178757565b634e487b7160e01b600052602260045260246000fd5b91607f169161177c565b90604051918260008254926117bb8461176d565b90818452600194858116908160001461182a57506001146117e7575b50506117e5925003836116a8565b565b9093915060005260209081600020936000915b8183106118125750506117e5935082010138806117d7565b855488840185015294850194879450918301916117fa565b9150506117e594506020925060ff191682840152151560051b82010138806117d7565b1561185457565b60405162461bcd60e51b8152602060048201526016602482015275496e76616c69642076696f6c6174696f6e207479706560501b6044820152606490fd5b60001981146118a15760010190565b634e487b7160e01b600052601160045260246000fd5b156118be57565b60405162461bcd60e51b815260206004820152601660248201527510da185b1b185b88191bd95cc81b9bdd08195e1a5cdd60521b6044820152606490fd5b9060405161190981611676565b6101606119b6600b83958054855260018060a01b03806001830154166020870152611936600283016117a7565b6040870152611947600383016117a7565b60608701526004820154166080860152611963600582016117a7565b60a0860152611974600682016117a7565b60c0860152611985600782016117a7565b60e08601526008810154610100860152600981015461012086015260ff600a820154161515610140860152016117a7565b910152565b6001600160401b0381116116925760051b60200190565b906119dc826119bb565b6040906119eb825191826116a8565b83815280936119fc601f19916119bb565b019160005b838110611a0e5750505050565b6020908251611a1c81611676565b6000815282600081830152606080868401528080840152600060808401528060a08401528060c08401528060e0840152600061010084015260006101208401526000610140840152610160830152828601015201611a01565b8051821015611a895760209160051b010190565b634e487b7160e01b600052603260045260246000fdfea264697066735822122054110e5cb12eee860f792cefb611954af530fe89a218c225c4ba05cf350ce26664736f6c63430008130033",
  "immutableReferences": {},
  "source": "// SPDX-License-Identifier: MIT\r\npragma solidity ^0.8.0;\r\nimport \"./violationdata.sol\";  // Import the ViolationCounter contract\r\n\r\n\r\ncontract violation {\r\n    // Struct to store the details of a challan\r\n    struct Challan {\r\n        uint256 id;\r\n        address violator;\r\n        string violatorCnic;     // CNIC of the violator\r\n        string violatorName;     // Name of the violator\r\n        address warden;          // Address of the warden issuing the challan\r\n        string wardenUserName;   // Username of the warden issuing the challan\r\n        string violationDetails; // Details of the violation\r\n        string location;         // Location where violation occurred\r\n        uint256 date;            // Timestamp of the violation\r\n        uint256 fineAmount;      // Fine amount for the violation\r\n        bool isTerminated;       // Status if challan is terminated\r\n        string registrationNumber; // Registration number of the vehicle\r\n    }\r\n\r\n    // Array to store all challans\r\n    Challan[] public challans;\r\n    // Counter for challan IDs\r\n    uint public challanCounter;\r\n\r\n    // Pre-defined violation details and their corresponding fines\r\n    mapping(string => uint256) public violationFines;\r\n\r\n    // Admin address\r\n    address public admin;\r\n\r\n    // Address of the ViolationCounter contract\r\n    ViolationCounter public violationCounter;\r\n\r\n    // Event to emit when a new challan is generated\r\n    event ChallanGenerated(\r\n        uint id,\r\n        address violator,\r\n        string violatorCnic,\r\n        string violatorName,\r\n        address warden,\r\n        string wardenUserName,\r\n        string violationDetails,\r\n        string location,\r\n        uint256 date,\r\n        uint fineAmount,\r\n        string registrationNumber // Add registration number to the event\r\n    );\r\n    \r\n    // Event to emit when a challan is updated\r\n    event ChallanUpdated(uint id, string violationDetails, uint fineAmount);\r\n    \r\n    // Event to emit when a challan is terminated\r\n    event ChallanTerminated(uint id);\r\n\r\n    // Constructor to initialize violation details with fines and set admin\r\n    constructor(address _violationCounterAddress) {\r\n        admin = msg.sender; // Set the contract deployer as the admin\r\n        violationCounter = ViolationCounter(_violationCounterAddress);  // Set the address of the deployed ViolationCounter contract\r\n\r\n\r\n        violationFines[\"Speeding (LTV)\"] = 500;\r\n        violationFines[\"Parking (LTV)\"] = 200;\r\n        violationFines[\"No Seatbelt (LTV)\"] = 100;\r\n        violationFines[\"Traffic Signal Violation (LTV)\"] = 800;\r\n        violationFines[\"Wrong Way (LTV)\"] = 300;\r\n        violationFines[\"Tinted Windows (LTV)\"] = 400;\r\n\r\n        violationFines[\"Speeding (Motorbike)\"] = 500;\r\n        violationFines[\"Parking (Motorbike)\"] = 200;\r\n        violationFines[\"No Helmet (Motorbike)\"] = 100;\r\n        violationFines[\"Traffic Signal Violation (Motorbike)\"] = 800;\r\n        violationFines[\"Wrong Way (Motorbike)\"] = 300;\r\n        violationFines[\"Pillion Riding (Motorbike)\"] = 400;\r\n\r\n        violationFines[\"Speeding (HTV)\"] = 500;\r\n        violationFines[\"Parking (HTV)\"] = 200;\r\n        violationFines[\"No Seatbelt (HTV)\"] = 100;\r\n        violationFines[\"Traffic Signal Violation (HTV)\"] = 800;\r\n        violationFines[\"Wrong Way (HTV)\"] = 300;\r\n        violationFines[\"Tinted Windows (HTV)\"] = 400;\r\n\r\n        // Add more predefined violations and fines as needed\r\n    }\r\n\r\n    // Function to generate a new challan\r\n    function generateChallan(\r\n        address _violator,\r\n        string memory _violatorCnic,\r\n        string memory _violatorName,\r\n        string memory _violationDetails,\r\n        string memory _location,\r\n        uint256 _date,\r\n        string memory _registrationNumber // Accept registration number\r\n    ) public {\r\n        // Ensure the violation type exists in the pre-defined list\r\n        require(violationFines[_violationDetails] > 0, \"Invalid violation type\");\r\n\r\n        challanCounter++;\r\n        uint fineAmount = violationFines[_violationDetails];  // Fetch fine based on violation type\r\n\r\n        Challan memory newChallan = Challan({\r\n            id: challanCounter,\r\n            violator: _violator,\r\n            violatorCnic: _violatorCnic,\r\n            violatorName: _violatorName,\r\n            warden: msg.sender,  // The warden issuing the challan is the sender of the transaction\r\n            wardenUserName: \"\",  // We leave the username empty for now; it can be handled separately\r\n            violationDetails: _violationDetails,\r\n            location: _location,\r\n            date: _date,\r\n            fineAmount: fineAmount,\r\n            isTerminated: false,\r\n            registrationNumber: _registrationNumber // Store registration number\r\n        });\r\n        challans.push(newChallan);  // Add the new challan to the array\r\n\r\n        // Increment the violation count in the ViolationCounter contract\r\n        violationCounter.incrementViolationCount(_violationDetails);\r\n\r\n        emit ChallanGenerated(\r\n            challanCounter,\r\n            _violator,\r\n            _violatorCnic,\r\n            _violatorName,\r\n            msg.sender,  // The warden issuing the challan\r\n            \"\",  // Empty username for now\r\n            _violationDetails,\r\n            _location,\r\n            _date,\r\n            fineAmount,\r\n            _registrationNumber // Emit registration number\r\n        );\r\n    }\r\n\r\n    // Function to get a challan's details\r\n    function getChallan(\r\n        uint _id\r\n    )\r\n        external\r\n        view\r\n        returns (\r\n            uint id,\r\n            address violator,\r\n            string memory violatorCnic,\r\n            string memory violatorName,\r\n            address warden,\r\n            string memory wardenUserName,\r\n            string memory violationDetails,\r\n            string memory location,\r\n            uint256 date,\r\n            uint fineAmount,\r\n            bool isTerminated,\r\n            string memory registrationNumber // Return registration number\r\n        )\r\n    {\r\n        // Ensure the challan exists\r\n        require(_id > 0 && _id <= challanCounter, \"Challan does not exist\");\r\n\r\n        // Fetch the challan from the array\r\n        Challan memory challan = challans[_id - 1];\r\n\r\n        // Return the challan details\r\n        return (\r\n            challan.id,\r\n            challan.violator,\r\n            challan.violatorCnic,\r\n            challan.violatorName,\r\n            challan.warden,\r\n            challan.wardenUserName,\r\n            challan.violationDetails,\r\n            challan.location,\r\n            challan.date,\r\n            challan.fineAmount,\r\n            challan.isTerminated,\r\n            challan.registrationNumber // Include registration number\r\n        );\r\n    }\r\n\r\n    // Function for the admin to get all challans\r\n    function getAllChallans() public view returns (Challan[] memory) {\r\n        //require(msg.sender == admin, \"Only admin can access all challans\");\r\n        return challans;\r\n    }\r\n\r\n    // Function to get all challans by a specific citizen (violator)\r\n    function getChallansByCitizen(address _citizen) public view returns (Challan[] memory) {\r\n        uint count = 0;\r\n        \r\n        // Count the number of challans associated with the citizen\r\n        for (uint i = 0; i < challans.length; i++) {\r\n            if (challans[i].violator == _citizen) {\r\n                count++;\r\n            }\r\n        }\r\n\r\n        Challan[] memory result = new Challan[](count);\r\n        uint index = 0;\r\n\r\n        // Retrieve the challans associated with the citizen\r\n        for (uint i = 0; i < challans.length; i++) {\r\n            if (challans[i].violator == _citizen) {\r\n                result[index] = challans[i];\r\n                index++;\r\n            }\r\n        }\r\n        \r\n        return result;\r\n    }\r\n\r\n    // Function to get all challans issued by a specific warden\r\n    function getChallansByWarden(address _warden) public view returns (Challan[] memory) {\r\n        uint count = 0;\r\n\r\n        // Count the number of challans issued by the warden\r\n        for (uint i = 0; i < challans.length; i++) {\r\n            if (challans[i].warden == _warden) {\r\n                count++;\r\n            }\r\n        }\r\n\r\n        Challan[] memory result = new Challan[](count);\r\n        uint index = 0;\r\n\r\n        // Retrieve the challans issued by the warden\r\n        for (uint i = 0; i < challans.length; i++) {\r\n            if (challans[i].warden == _warden) {\r\n                result[index] = challans[i];\r\n                index++;\r\n            }\r\n        }\r\n        \r\n        return result;\r\n    }\r\n\r\n    // Function to update a challan's details\r\n    function updateChallan(\r\n        uint _id,\r\n        string memory _violationDetails\r\n    ) public {\r\n        // Ensure the challan exists\r\n        require(_id > 0 && _id <= challanCounter, \"Challan does not exist\");\r\n\r\n        // Fetch the challan from the array\r\n        Challan storage challan = challans[_id - 1];\r\n\r\n        // Ensure the challan is not terminated\r\n        require(!challan.isTerminated, \"Challan is terminated and cannot be updated\");\r\n\r\n        // Ensure the new violation type exists in the pre-defined list\r\n        require(violationFines[_violationDetails] > 0, \"Invalid violation type\");\r\n\r\n        // Ensure only the original warden can update the challan\r\n        require(challan.warden == msg.sender, \"Only the warden who issued the challan can update it\");\r\n\r\n        // Update the challan details\r\n        challan.violationDetails = _violationDetails;\r\n        challan.fineAmount = violationFines[_violationDetails];\r\n\r\n        emit ChallanUpdated(_id, _violationDetails, challan.fineAmount);\r\n    }\r\n\r\n    // Function to terminate a challan\r\n    function terminateChallan(uint _id) public {\r\n        // Ensure the challan exists\r\n        require(_id > 0 && _id <= challanCounter, \"Challan does not exist\");\r\n\r\n        // Fetch the challan from the array\r\n        Challan storage challan = challans[_id - 1];\r\n\r\n        // Ensure only the original warden can terminate the challan\r\n        require(challan.warden == msg.sender, \"Only the warden who issued the challan can terminate it\");\r\n\r\n        // Terminate the challan\r\n        challan.isTerminated = true;\r\n\r\n        emit ChallanTerminated(_id);\r\n    }\r\n}\r\n",
  "sourcePath": "C:\\Users\\naufi\\Desktop\\FYP\\FineFlow-FYP\\Contracts\\contracts\\violation.sol",
  "compiler": {
    "name": "solc",
    "version": "0.8.19+commit.7dd6d404.Emscripten.clang"
  },
  "schemaVersion": "3.4.16",
  "updatedAt": "2024-10-10T00:23:04.944Z",
  "networkType": "ethereum",
  "devdoc": {
    "kind": "dev",
    "methods": {},
    "version": 1
  },
  "userdoc": {
    "kind": "user",
    "methods": {},
    "version": 1
  }
}