{
  "contractName": "violation",
  "abi": [
    {
      "inputs": [],
      "stateMutability": "nonpayable",
      "type": "constructor"
    },
    {
      "anonymous": false,
      "inputs": [
        {
          "indexed": false,
          "internalType": "uint256",
          "name": "id",
          "type": "uint256"
        },
        {
          "indexed": false,
          "internalType": "address",
          "name": "violator",
          "type": "address"
        },
        {
          "indexed": false,
          "internalType": "string",
          "name": "violatorCnic",
          "type": "string"
        },
        {
          "indexed": false,
          "internalType": "string",
          "name": "violatorName",
          "type": "string"
        },
        {
          "indexed": false,
          "internalType": "address",
          "name": "warden",
          "type": "address"
        },
        {
          "indexed": false,
          "internalType": "string",
          "name": "wardenUserName",
          "type": "string"
        },
        {
          "indexed": false,
          "internalType": "string",
          "name": "violationDetails",
          "type": "string"
        },
        {
          "indexed": false,
          "internalType": "string",
          "name": "location",
          "type": "string"
        },
        {
          "indexed": false,
          "internalType": "uint256",
          "name": "date",
          "type": "uint256"
        },
        {
          "indexed": false,
          "internalType": "uint256",
          "name": "fineAmount",
          "type": "uint256"
        }
      ],
      "name": "ChallanGenerated",
      "type": "event"
    },
    {
      "anonymous": false,
      "inputs": [
        {
          "indexed": false,
          "internalType": "uint256",
          "name": "id",
          "type": "uint256"
        }
      ],
      "name": "ChallanTerminated",
      "type": "event"
    },
    {
      "anonymous": false,
      "inputs": [
        {
          "indexed": false,
          "internalType": "uint256",
          "name": "id",
          "type": "uint256"
        },
        {
          "indexed": false,
          "internalType": "string",
          "name": "violationDetails",
          "type": "string"
        },
        {
          "indexed": false,
          "internalType": "uint256",
          "name": "fineAmount",
          "type": "uint256"
        }
      ],
      "name": "ChallanUpdated",
      "type": "event"
    },
    {
      "inputs": [],
      "name": "challanCounter",
      "outputs": [
        {
          "internalType": "uint256",
          "name": "",
          "type": "uint256"
        }
      ],
      "stateMutability": "view",
      "type": "function",
      "constant": true
    },
    {
      "inputs": [
        {
          "internalType": "uint256",
          "name": "",
          "type": "uint256"
        }
      ],
      "name": "challans",
      "outputs": [
        {
          "internalType": "uint256",
          "name": "id",
          "type": "uint256"
        },
        {
          "internalType": "address",
          "name": "violator",
          "type": "address"
        },
        {
          "internalType": "string",
          "name": "violatorCnic",
          "type": "string"
        },
        {
          "internalType": "string",
          "name": "violatorName",
          "type": "string"
        },
        {
          "internalType": "address",
          "name": "warden",
          "type": "address"
        },
        {
          "internalType": "string",
          "name": "wardenUserName",
          "type": "string"
        },
        {
          "internalType": "string",
          "name": "violationDetails",
          "type": "string"
        },
        {
          "internalType": "string",
          "name": "location",
          "type": "string"
        },
        {
          "internalType": "uint256",
          "name": "date",
          "type": "uint256"
        },
        {
          "internalType": "uint256",
          "name": "fineAmount",
          "type": "uint256"
        },
        {
          "internalType": "bool",
          "name": "isTerminated",
          "type": "bool"
        }
      ],
      "stateMutability": "view",
      "type": "function",
      "constant": true
    },
    {
      "inputs": [
        {
          "internalType": "string",
          "name": "",
          "type": "string"
        }
      ],
      "name": "violationFines",
      "outputs": [
        {
          "internalType": "uint256",
          "name": "",
          "type": "uint256"
        }
      ],
      "stateMutability": "view",
      "type": "function",
      "constant": true
    },
    {
      "inputs": [
        {
          "internalType": "address",
          "name": "_violator",
          "type": "address"
        },
        {
          "internalType": "string",
          "name": "_violatorCnic",
          "type": "string"
        },
        {
          "internalType": "string",
          "name": "_violatorName",
          "type": "string"
        },
        {
          "internalType": "string",
          "name": "_violationDetails",
          "type": "string"
        },
        {
          "internalType": "string",
          "name": "_location",
          "type": "string"
        },
        {
          "internalType": "uint256",
          "name": "_date",
          "type": "uint256"
        }
      ],
      "name": "generateChallan",
      "outputs": [],
      "stateMutability": "nonpayable",
      "type": "function"
    },
    {
      "inputs": [
        {
          "internalType": "uint256",
          "name": "_id",
          "type": "uint256"
        }
      ],
      "name": "getChallan",
      "outputs": [
        {
          "internalType": "uint256",
          "name": "id",
          "type": "uint256"
        },
        {
          "internalType": "address",
          "name": "violator",
          "type": "address"
        },
        {
          "internalType": "string",
          "name": "violatorCnic",
          "type": "string"
        },
        {
          "internalType": "string",
          "name": "violatorName",
          "type": "string"
        },
        {
          "internalType": "address",
          "name": "warden",
          "type": "address"
        },
        {
          "internalType": "string",
          "name": "wardenUserName",
          "type": "string"
        },
        {
          "internalType": "string",
          "name": "violationDetails",
          "type": "string"
        },
        {
          "internalType": "string",
          "name": "location",
          "type": "string"
        },
        {
          "internalType": "uint256",
          "name": "date",
          "type": "uint256"
        },
        {
          "internalType": "uint256",
          "name": "fineAmount",
          "type": "uint256"
        },
        {
          "internalType": "bool",
          "name": "isTerminated",
          "type": "bool"
        }
      ],
      "stateMutability": "view",
      "type": "function",
      "constant": true
    },
    {
      "inputs": [
        {
          "internalType": "address",
          "name": "_citizen",
          "type": "address"
        }
      ],
      "name": "getChallansByCitizen",
      "outputs": [
        {
          "components": [
            {
              "internalType": "uint256",
              "name": "id",
              "type": "uint256"
            },
            {
              "internalType": "address",
              "name": "violator",
              "type": "address"
            },
            {
              "internalType": "string",
              "name": "violatorCnic",
              "type": "string"
            },
            {
              "internalType": "string",
              "name": "violatorName",
              "type": "string"
            },
            {
              "internalType": "address",
              "name": "warden",
              "type": "address"
            },
            {
              "internalType": "string",
              "name": "wardenUserName",
              "type": "string"
            },
            {
              "internalType": "string",
              "name": "violationDetails",
              "type": "string"
            },
            {
              "internalType": "string",
              "name": "location",
              "type": "string"
            },
            {
              "internalType": "uint256",
              "name": "date",
              "type": "uint256"
            },
            {
              "internalType": "uint256",
              "name": "fineAmount",
              "type": "uint256"
            },
            {
              "internalType": "bool",
              "name": "isTerminated",
              "type": "bool"
            }
          ],
          "internalType": "struct violation.Challan[]",
          "name": "",
          "type": "tuple[]"
        }
      ],
      "stateMutability": "view",
      "type": "function",
      "constant": true
    },
    {
      "inputs": [
        {
          "internalType": "address",
          "name": "_warden",
          "type": "address"
        }
      ],
      "name": "getChallansByWarden",
      "outputs": [
        {
          "components": [
            {
              "internalType": "uint256",
              "name": "id",
              "type": "uint256"
            },
            {
              "internalType": "address",
              "name": "violator",
              "type": "address"
            },
            {
              "internalType": "string",
              "name": "violatorCnic",
              "type": "string"
            },
            {
              "internalType": "string",
              "name": "violatorName",
              "type": "string"
            },
            {
              "internalType": "address",
              "name": "warden",
              "type": "address"
            },
            {
              "internalType": "string",
              "name": "wardenUserName",
              "type": "string"
            },
            {
              "internalType": "string",
              "name": "violationDetails",
              "type": "string"
            },
            {
              "internalType": "string",
              "name": "location",
              "type": "string"
            },
            {
              "internalType": "uint256",
              "name": "date",
              "type": "uint256"
            },
            {
              "internalType": "uint256",
              "name": "fineAmount",
              "type": "uint256"
            },
            {
              "internalType": "bool",
              "name": "isTerminated",
              "type": "bool"
            }
          ],
          "internalType": "struct violation.Challan[]",
          "name": "",
          "type": "tuple[]"
        }
      ],
      "stateMutability": "view",
      "type": "function",
      "constant": true
    },
    {
      "inputs": [
        {
          "internalType": "uint256",
          "name": "_id",
          "type": "uint256"
        },
        {
          "internalType": "string",
          "name": "_violationDetails",
          "type": "string"
        }
      ],
      "name": "updateChallan",
      "outputs": [],
      "stateMutability": "nonpayable",
      "type": "function"
    },
    {
      "inputs": [
        {
          "internalType": "uint256",
          "name": "_id",
          "type": "uint256"
        }
      ],
      "name": "terminateChallan",
      "outputs": [],
      "stateMutability": "nonpayable",
      "type": "function"
    }
  ],
  "bytecode": "0x6080604090808252346100e557602e81675370656564696e6760c01b61019093526101f46028600292836008820152205560c860278551665061726b696e6760c81b815283600782015220556064602b85516a139bc814d9585d18995b1d60aa1b815283600b8201522055610320603885517f54726166666963205369676e616c2056696f6c6174696f6e00000000000000008152836018820152205561012c602985516857726f6e672057617960b81b815283600982015220558351906d54696e7465642057696e646f777360901b8252600e82015220555161175990816100eb8239f35b600080fdfe6080604052600436101561001257600080fd5b60003560e01c80631d735427146110655780633b4a4ead14610f755780635146b42f14610ecc57806396ab4bab14610e705780639c1cfb6114610dc6578063c0dcdd8914610ac0578063e4f2266d14610aa2578063e6a230911461019d5763fef88e971461007f57600080fd5b34610198576020366003190112610198576004358015158061018c575b6100a590611554565b6000198101818111610176576100ba906113d2565b5060048101546001600160a01b0316330361010b57600a01805460ff191660011790556040519081527fd4c7402b4f900bcb67a96ed6052c481de7c7015122b904145ad8dd766e6c3d4e90602090a1005b60405162461bcd60e51b815260206004820152603760248201527f4f6e6c79207468652077617264656e2077686f2069737375656420746865206360448201527f68616c6c616e2063616e207465726d696e6174652069740000000000000000006064820152608490fd5b634e487b7160e01b600052601160045260246000fd5b5060015481111561009c565b600080fd5b346101985760c0366003190112610198576101b661113a565b6024356001600160401b038111610198576101d590369060040161137c565b906044356001600160401b038111610198576101f590369060040161137c565b916064356001600160401b0381116101985761021590369060040161137c565b926084356001600160401b0381116101985761023590369060040161137c565b60405191610263865193602081818a019661025181838a611150565b81016002815203019020541515611500565b6102896020610273600154611545565b9485600155604051809381928b51928391611150565b810160028152030190205492604051906102a28261133f565b815260018060a01b03861660208201528460408201528160608201523360808201526040518060208101106001600160401b0360208301111761073657602081016040526000815260a08201528660c08201528260e082015260a435610100820152836101208201526000610140820152600054680100000000000000008110156107365780600161033792016000556113d2565b610a8c57815181556001810160018060a01b036020840151166bffffffffffffffffffffffff60a01b82541617905560408201518051906001600160401b03821161073657819061038b6002850154611420565b601f8111610a39575b50602090601f83116001146109c7576000926109bc575b50508160011b916000199060031b1c19161760028201555b60608201518051906001600160401b0382116107365781906103e86003850154611420565b601f8111610969575b50602090601f83116001146108f7576000926108ec575b50508160011b916000199060031b1c19161760038201555b6004810160018060a01b036080840151166bffffffffffffffffffffffff60a01b82541617905560a08201518051906001600160401b03821161073657819061046c6005850154611420565b601f8111610899575b50602090601f83116001146108275760009261081c575b50508160011b916000199060031b1c19161760058201555b60c08201518051906001600160401b0382116107365781906104c96006850154611420565b601f81116107c9575b50602090601f83116001146107575760009261074c575b50508160011b916000199060031b1c19161760068201555b60e08201518051906001600160401b038211610736576105246007840154611420565b601f81116106ef575b50602090601f8311600114610649579461061b94610140600a7f36f804def7fc5084eb9093a9ac04f11d5d9cab36a2c3c66f8fdf6e1998b677e39d96866020976105fa976106299d9c60009261063e575b50508160011b916000199060031b1c19161760078201555b6101008401516008820155610120840151600982015501910151151560ff801983541691161790556105ec600154996040519b8c9b8c5260018060a01b0316858c015261014060408c01526101408b0190611173565b9089820360608b0152611173565b336080890152818882038060a08b0152600083520160c08901520190611173565b9084820360e0860152611173565b9060a4356101008401526101208301520390a1005b01519050388061057e565b906007840160005260206000209160005b601f19851681106106d7575094610140600a7f36f804def7fc5084eb9093a9ac04f11d5d9cab36a2c3c66f8fdf6e1998b677e39d966001876105fa976106299d9c9761061b9c60209b601f198116106106be575b505050811b016007820155610596565b015160001960f88460031b161c191690553880806106ae565b9192602060018192868501518155019401920161065a565b600784016000526020600020601f840160051c81016020851061072f575b601f830160051c8201811061072357505061052d565b6000815560010161070d565b508061070d565b634e487b7160e01b600052604160045260246000fd5b015190508a806104e9565b9250600684016000526020600020906000935b601f19841685106107ae576001945083601f19811610610795575b505050811b016006820155610501565b015160001960f88460031b161c191690558a8080610785565b8181015183556020948501946001909301929091019061076a565b909150600684016000526020600020601f840160051c810160208510610815575b90849392915b601f830160051c820181106108065750506104d2565b600081558594506001016107f0565b50806107ea565b015190508a8061048c565b9250600584016000526020600020906000935b601f198416851061087e576001945083601f19811610610865575b505050811b0160058201556104a4565b015160001960f88460031b161c191690558a8080610855565b8181015183556020948501946001909301929091019061083a565b909150600584016000526020600020601f840160051c8101602085106108e5575b90849392915b601f830160051c820181106108d6575050610475565b600081558594506001016108c0565b50806108ba565b015190508a80610408565b9250600384016000526020600020906000935b601f198416851061094e576001945083601f19811610610935575b505050811b016003820155610420565b015160001960f88460031b161c191690558a8080610925565b8181015183556020948501946001909301929091019061090a565b909150600384016000526020600020601f840160051c8101602085106109b5575b90849392915b601f830160051c820181106109a65750506103f1565b60008155859450600101610990565b508061098a565b015190508a806103ab565b9250600284016000526020600020906000935b601f1984168510610a1e576001945083601f19811610610a05575b505050811b0160028201556103c3565b015160001960f88460031b161c191690558a80806109f5565b818101518355602094850194600190930192909101906109da565b909150600284016000526020600020601f840160051c810160208510610a85575b90849392915b601f830160051c82018110610a76575050610394565b60008155859450600101610a60565b5080610a5a565b634e487b7160e01b600052600060045260246000fd5b34610198576000366003190112610198576020600154604051908152f35b34610198576040366003190112610198576004356001600160401b0360243581811161019857610af490369060040161137c565b82151580610dba575b610b0690611554565b6000199183830184811161017657610b1d906113d2565b509060ff600a83015416610d615760405193835191610b4960209687818189019661025181838a611150565b60048401546001600160a01b03163303610cff576006840191855191821161073657610b758354611420565b601f8111610cb9575b5086601f8311600114610c2457610c0e947fd88cd3fc9322ccf50df7dec6797866a2d3b8f4c45b92303b1a2c61dc1da543309997948460099895610be7958c95600092610c19575b508260011b9260031b1c19161790555b604051809381928751928391611150565b81016002815203019020549384910155606060405195869586528501526060840190611173565b9060408301520390a1005b89015191508e610bc6565b90601f1983169184600052886000209260005b818110610ca2575094600185610be7958c95610c0e9a957fd88cd3fc9322ccf50df7dec6797866a2d3b8f4c45b92303b1a2c61dc1da543309f9d9a9960099d9a10610c8a575b505050811b019055610bd6565b8a01519060f88460031b161c191690558d8080610c7d565b91938a60018192878d015181550195019201610c37565b8360005287600020601f840160051c810191898510610cf5575b601f0160051c01905b818110610ce95750610b7e565b60008155600101610cdc565b9091508190610cd3565b60405162461bcd60e51b815260048101879052603460248201527f4f6e6c79207468652077617264656e2077686f206973737565642074686520636044820152731a185b1b185b8818d85b881d5c19185d19481a5d60621b6064820152608490fd5b60405162461bcd60e51b815260206004820152602b60248201527f4368616c6c616e206973207465726d696e6174656420616e642063616e6e6f7460448201526a081899481d5c19185d195960aa1b6064820152608490fd5b50600154831115610afd565b346101985760203660031901126101985760043560005481101561019857610ded906113d2565b50805460018201546001600160a01b0390811692610e6c9190610e126002820161145a565b91610e1f6003830161145a565b90600483015416610e326005840161145a565b610e3e6006850161145a565b90610e4b6007860161145a565b9260088601549460ff600a600989015498015416976040519b8c9b8c6112aa565b0390f35b34610198576020366003190112610198576004356001600160401b03811161019857610eb96020610ea68193369060040161137c565b8160405193828580945193849201611150565b8101600281520301902054604051908152f35b346101985760203660031901126101985760043580151580610f69575b610ef290611554565b600019810190811161017657610f0a610f10916113d2565b50611599565b8051610e6c60018060a01b03806020850151169360408101519160608201519060808301511660a083015160c08401519060e085015192610100860151946101406101208801519701511515976040519b8c9b8c6112aa565b50600154811115610ee9565b3461019857602036600319011261019857610f8e61113a565b600080546001600160a01b03928316929091805b83811061102b5750610fb39061165d565b9260009160005b848110610fcf5760405180610e6c8882611198565b82826004610fdc846113d2565b5001541614610ff4575b610fef90611545565b610fba565b92611023610fef91611008610f0a876113d2565b611012828a6116f9565b5261101d81896116f9565b50611545565b939050610fe6565b84836004611038846113d2565b5001541614611050575b61104b90611545565b610fa2565b9061105d61104b91611545565b919050611042565b346101985760203660031901126101985761107e61113a565b600080546001600160a01b03928316929091805b83811061110057506110a39061165d565b9260009160005b8481106110bf5760405180610e6c8882611198565b828260016110cc846113d2565b50015416146110e4575b6110df90611545565b6110aa565b926110f86110df91611008610f0a876113d2565b9390506110d6565b8483600161110d846113d2565b5001541614611125575b61112090611545565b611092565b9061113261112091611545565b919050611117565b600435906001600160a01b038216820361019857565b60005b8381106111635750506000910152565b8181015183820152602001611153565b9060209161118c81518092818552858086019101611150565b601f01601f1916010190565b602080820190808352835180925260409283810182858560051b8401019601946000925b8584106111cd575050505050505090565b909192939495968580600192603f198582030187528a519081518152611276611263611250878060a01b038087870151168786015261123061121d8c8801518d61016080918a0152880190611173565b6060808901519088830390890152611173565b9060809081880151169086015260a0808701519086830390870152611173565b60c0808601519085830390860152611173565b60e0808501519084830390850152611173565b91610100808201519083015261012080820151908301526101408091015115159101529901940194019295949391906111bc565b9996929561130f926112fb8c6101409c9f9e9b9894976112ed61132b9b61131d9a845260018060a01b038096166020850152610160806040860152840190611173565b916060818403910152611173565b921660808c01528a820360a08c0152611173565b9088820360c08a0152611173565b9086820360e0880152611173565b956101008501526101208401521515910152565b61016081019081106001600160401b0382111761073657604052565b90601f801991011681019081106001600160401b0382111761073657604052565b81601f82011215610198578035906001600160401b03821161073657604051926113b0601f8401601f19166020018561135b565b8284526020838301011161019857816000926020809301838601378301015290565b90600091825481101561140c57600b90838052027f290decd9548b62a8d60345a988386fc84ba6bc95484008f6362f93160ef3e563019190565b634e487b7160e01b83526032600452602483fd5b90600182811c92168015611450575b602083101461143a57565b634e487b7160e01b600052602260045260246000fd5b91607f169161142f565b906040519182600082549261146e84611420565b9081845260019485811690816000146114dd575060011461149a575b50506114989250038361135b565b565b9093915060005260209081600020936000915b8183106114c55750506114989350820101388061148a565b855488840185015294850194879450918301916114ad565b91505061149894506020925060ff191682840152151560051b820101388061148a565b1561150757565b60405162461bcd60e51b8152602060048201526016602482015275496e76616c69642076696f6c6174696f6e207479706560501b6044820152606490fd5b60001981146101765760010190565b1561155b57565b60405162461bcd60e51b815260206004820152601660248201527510da185b1b185b88191bd95cc81b9bdd08195e1a5cdd60521b6044820152606490fd5b906040516115a68161133f565b61014060ff600a83958054855260018060a01b038060018301541660208701526115d26002830161145a565b60408701526115e36003830161145a565b606087015260048201541660808601526115ff6005820161145a565b60a08601526116106006820161145a565b60c08601526116216007820161145a565b60e0860152600881015461010086015260098101546101208601520154161515910152565b6001600160401b0381116107365760051b60200190565b9061166782611646565b6040906116768251918261135b565b8381528093611687601f1991611646565b019160005b8381106116995750505050565b60209082516116a78161133f565b6000815282600081830152606080868401528080840152600060808401528060a08401528060c084015260e083015260006101008301526000610120830152600061014083015282860101520161168c565b805182101561170d5760209160051b010190565b634e487b7160e01b600052603260045260246000fdfea264697066735822122033145a7de84ad8496a71a0f29b7babe52c43b1efb120e29112ad53a93a4c6c0b64736f6c63430008130033",
  "immutableReferences": {},
  "source": "// SPDX-License-Identifier: MIT\r\npragma solidity ^0.8.0;\r\n\r\ncontract violation {\r\n    // Struct to store the details of a challan\r\n    struct Challan {\r\n        uint256 id;\r\n        address violator;\r\n        string violatorCnic;     // CNIC of the violator\r\n        string violatorName;     // Name of the violator\r\n        address warden;          // Address of the warden issuing the challan\r\n        string wardenUserName;   // Username of the warden issuing the challan\r\n        string violationDetails; // Details of the violation\r\n        string location;         // Location where violation occurred\r\n        uint256 date;            // Timestamp of the violation\r\n        uint256 fineAmount;      // Fine amount for the violation\r\n        bool isTerminated;       // Status if challan is terminated\r\n    }\r\n\r\n    // Array to store all challans\r\n    Challan[] public challans;\r\n    // Counter for challan IDs\r\n    uint public challanCounter;\r\n\r\n    // Pre-defined violation details and their corresponding fines\r\n    mapping(string => uint256) public violationFines;\r\n\r\n    // Event to emit when a new challan is generated\r\n    event ChallanGenerated(\r\n        uint id,\r\n        address violator,\r\n        string violatorCnic,\r\n        string violatorName,\r\n        address warden,\r\n        string wardenUserName,\r\n        string violationDetails,\r\n        string location,\r\n        uint256 date,\r\n        uint fineAmount\r\n    );\r\n    \r\n    // Event to emit when a challan is updated\r\n    event ChallanUpdated(uint id, string violationDetails, uint fineAmount);\r\n    \r\n    // Event to emit when a challan is terminated\r\n    event ChallanTerminated(uint id);\r\n\r\n    // Constructor to initialize violation details with fines\r\n    constructor() {\r\n        violationFines[\"Speeding\"] = 500;\r\n        violationFines[\"Parking\"] = 200;\r\n        violationFines[\"No Seatbelt\"] = 100;\r\n        violationFines[\"Traffic Signal Violation\"] = 800;\r\n        violationFines[\"Wrong Way\"] = 300;\r\n        violationFines[\"Tinted Windows\"] = 400;\r\n        // Add more predefined violations and fines as needed\r\n    }\r\n\r\n    // Function to generate a new challan\r\n    function generateChallan(\r\n        address _violator,\r\n        string memory _violatorCnic,\r\n        string memory _violatorName,\r\n        string memory _violationDetails,\r\n        string memory _location,\r\n        uint256 _date\r\n    ) public {\r\n        // Ensure the violation type exists in the pre-defined list\r\n        require(violationFines[_violationDetails] > 0, \"Invalid violation type\");\r\n\r\n        challanCounter++;\r\n        uint fineAmount = violationFines[_violationDetails];  // Fetch fine based on violation type\r\n\r\n        Challan memory newChallan = Challan({\r\n            id: challanCounter,\r\n            violator: _violator,\r\n            violatorCnic: _violatorCnic,\r\n            violatorName: _violatorName,\r\n            warden: msg.sender,  // The warden issuing the challan is the sender of the transaction\r\n            wardenUserName: \"\",  // We leave the username empty for now; it can be handled separately\r\n            violationDetails: _violationDetails,\r\n            location: _location,\r\n            date: _date,\r\n            fineAmount: fineAmount,\r\n            isTerminated: false\r\n        });\r\n        challans.push(newChallan);  // Add the new challan to the array\r\n\r\n        emit ChallanGenerated(\r\n            challanCounter,\r\n            _violator,\r\n            _violatorCnic,\r\n            _violatorName,\r\n            msg.sender,  // The warden issuing the challan\r\n            \"\",  // Empty username for now\r\n            _violationDetails,\r\n            _location,\r\n            _date,\r\n            fineAmount\r\n        );\r\n    }\r\n\r\n    // Function to get a challan's details\r\n    function getChallan(\r\n        uint _id\r\n    )\r\n        external\r\n        view\r\n        returns (\r\n            uint id,\r\n            address violator,\r\n            string memory violatorCnic,\r\n            string memory violatorName,\r\n            address warden,\r\n            string memory wardenUserName,\r\n            string memory violationDetails,\r\n            string memory location,\r\n            uint256 date,\r\n            uint fineAmount,\r\n            bool isTerminated\r\n        )\r\n    {\r\n        // Ensure the challan exists\r\n        require(_id > 0 && _id <= challanCounter, \"Challan does not exist\");\r\n\r\n        // Fetch the challan from the array\r\n        Challan memory challan = challans[_id - 1];\r\n\r\n        // Return the challan details\r\n        return (\r\n            challan.id,\r\n            challan.violator,\r\n            challan.violatorCnic,\r\n            challan.violatorName,\r\n            challan.warden,\r\n            challan.wardenUserName,\r\n            challan.violationDetails,\r\n            challan.location,\r\n            challan.date,\r\n            challan.fineAmount,\r\n            challan.isTerminated\r\n        );\r\n    }\r\n\r\n    // Function to get all challans by a specific citizen (violator)\r\n    function getChallansByCitizen(address _citizen) public view returns (Challan[] memory) {\r\n        uint count = 0;\r\n        \r\n        // Count the number of challans associated with the citizen\r\n        for (uint i = 0; i < challans.length; i++) {\r\n            if (challans[i].violator == _citizen) {\r\n                count++;\r\n            }\r\n        }\r\n\r\n        Challan[] memory result = new Challan[](count);\r\n        uint index = 0;\r\n\r\n        // Retrieve the challans associated with the citizen\r\n        for (uint i = 0; i < challans.length; i++) {\r\n            if (challans[i].violator == _citizen) {\r\n                result[index] = challans[i];\r\n                index++;\r\n            }\r\n        }\r\n        \r\n        return result;\r\n    }\r\n\r\n    // Function to get all challans issued by a specific warden\r\n    function getChallansByWarden(address _warden) public view returns (Challan[] memory) {\r\n        uint count = 0;\r\n\r\n        // Count the number of challans issued by the warden\r\n        for (uint i = 0; i < challans.length; i++) {\r\n            if (challans[i].warden == _warden) {\r\n                count++;\r\n            }\r\n        }\r\n\r\n        Challan[] memory result = new Challan[](count);\r\n        uint index = 0;\r\n\r\n        // Retrieve the challans issued by the warden\r\n        for (uint i = 0; i < challans.length; i++) {\r\n            if (challans[i].warden == _warden) {\r\n                result[index] = challans[i];\r\n                index++;\r\n            }\r\n        }\r\n        \r\n        return result;\r\n    }\r\n\r\n    // Function to update a challan's details\r\n    function updateChallan(\r\n        uint _id,\r\n        string memory _violationDetails\r\n    ) public {\r\n        // Ensure the challan exists\r\n        require(_id > 0 && _id <= challanCounter, \"Challan does not exist\");\r\n\r\n        // Fetch the challan from the array\r\n        Challan storage challan = challans[_id - 1];\r\n\r\n        // Ensure the challan is not terminated\r\n        require(!challan.isTerminated, \"Challan is terminated and cannot be updated\");\r\n\r\n        // Ensure the new violation type exists in the pre-defined list\r\n        require(violationFines[_violationDetails] > 0, \"Invalid violation type\");\r\n\r\n        // Ensure only the original warden can update the challan\r\n        require(challan.warden == msg.sender, \"Only the warden who issued the challan can update it\");\r\n\r\n        // Update the challan details\r\n        challan.violationDetails = _violationDetails;\r\n        challan.fineAmount = violationFines[_violationDetails];\r\n\r\n        emit ChallanUpdated(_id, _violationDetails, challan.fineAmount);\r\n    }\r\n\r\n    // Function to terminate a challan\r\n    function terminateChallan(uint _id) public {\r\n        // Ensure the challan exists\r\n        require(_id > 0 && _id <= challanCounter, \"Challan does not exist\");\r\n\r\n        // Fetch the challan from the array\r\n        Challan storage challan = challans[_id - 1];\r\n\r\n        // Ensure only the original warden can terminate the challan\r\n        require(challan.warden == msg.sender, \"Only the warden who issued the challan can terminate it\");\r\n\r\n        // Terminate the challan\r\n        challan.isTerminated = true;\r\n\r\n        emit ChallanTerminated(_id);\r\n    }\r\n}\r\n",
  "sourcePath": "C:\\Users\\naufi\\FineFlow-FYP\\contracts\\contracts\\violation.sol",
  "compiler": {
    "name": "solc",
    "version": "0.8.19+commit.7dd6d404.Emscripten.clang"
  },
  "schemaVersion": "3.4.16",
  "updatedAt": "2024-09-29T10:47:11.365Z",
  "networkType": "ethereum",
  "devdoc": {
    "kind": "dev",
    "methods": {},
    "version": 1
  },
  "userdoc": {
    "kind": "user",
    "methods": {},
    "version": 1
  }
}