{
  "contractName": "violation",
  "abi": [
    {
      "inputs": [],
      "stateMutability": "nonpayable",
      "type": "constructor"
    },
    {
      "anonymous": false,
      "inputs": [
        {
          "indexed": false,
          "internalType": "uint256",
          "name": "id",
          "type": "uint256"
        },
        {
          "indexed": false,
          "internalType": "address",
          "name": "violator",
          "type": "address"
        },
        {
          "indexed": false,
          "internalType": "string",
          "name": "violatorCnic",
          "type": "string"
        },
        {
          "indexed": false,
          "internalType": "string",
          "name": "violatorName",
          "type": "string"
        },
        {
          "indexed": false,
          "internalType": "uint256",
          "name": "wardenId",
          "type": "uint256"
        },
        {
          "indexed": false,
          "internalType": "string",
          "name": "violationDetails",
          "type": "string"
        },
        {
          "indexed": false,
          "internalType": "string",
          "name": "location",
          "type": "string"
        },
        {
          "indexed": false,
          "internalType": "uint256",
          "name": "date",
          "type": "uint256"
        },
        {
          "indexed": false,
          "internalType": "uint256",
          "name": "fineAmount",
          "type": "uint256"
        }
      ],
      "name": "ChallanGenerated",
      "type": "event"
    },
    {
      "anonymous": false,
      "inputs": [
        {
          "indexed": false,
          "internalType": "uint256",
          "name": "id",
          "type": "uint256"
        }
      ],
      "name": "ChallanTerminated",
      "type": "event"
    },
    {
      "anonymous": false,
      "inputs": [
        {
          "indexed": false,
          "internalType": "uint256",
          "name": "id",
          "type": "uint256"
        },
        {
          "indexed": false,
          "internalType": "string",
          "name": "violationDetails",
          "type": "string"
        },
        {
          "indexed": false,
          "internalType": "uint256",
          "name": "fineAmount",
          "type": "uint256"
        }
      ],
      "name": "ChallanUpdated",
      "type": "event"
    },
    {
      "inputs": [],
      "name": "challanCounter",
      "outputs": [
        {
          "internalType": "uint256",
          "name": "",
          "type": "uint256"
        }
      ],
      "stateMutability": "view",
      "type": "function",
      "constant": true
    },
    {
      "inputs": [
        {
          "internalType": "uint256",
          "name": "",
          "type": "uint256"
        }
      ],
      "name": "challans",
      "outputs": [
        {
          "internalType": "uint256",
          "name": "id",
          "type": "uint256"
        },
        {
          "internalType": "address",
          "name": "violator",
          "type": "address"
        },
        {
          "internalType": "string",
          "name": "violatorCnic",
          "type": "string"
        },
        {
          "internalType": "string",
          "name": "violatorName",
          "type": "string"
        },
        {
          "internalType": "uint256",
          "name": "wardenId",
          "type": "uint256"
        },
        {
          "internalType": "string",
          "name": "violationDetails",
          "type": "string"
        },
        {
          "internalType": "string",
          "name": "location",
          "type": "string"
        },
        {
          "internalType": "uint256",
          "name": "date",
          "type": "uint256"
        },
        {
          "internalType": "uint256",
          "name": "fineAmount",
          "type": "uint256"
        },
        {
          "internalType": "bool",
          "name": "isTerminated",
          "type": "bool"
        }
      ],
      "stateMutability": "view",
      "type": "function",
      "constant": true
    },
    {
      "inputs": [
        {
          "internalType": "string",
          "name": "",
          "type": "string"
        }
      ],
      "name": "violationFines",
      "outputs": [
        {
          "internalType": "uint256",
          "name": "",
          "type": "uint256"
        }
      ],
      "stateMutability": "view",
      "type": "function",
      "constant": true
    },
    {
      "inputs": [
        {
          "internalType": "address",
          "name": "_violator",
          "type": "address"
        },
        {
          "internalType": "string",
          "name": "_violatorCnic",
          "type": "string"
        },
        {
          "internalType": "string",
          "name": "_violatorName",
          "type": "string"
        },
        {
          "internalType": "uint256",
          "name": "_wardenId",
          "type": "uint256"
        },
        {
          "internalType": "string",
          "name": "_violationDetails",
          "type": "string"
        },
        {
          "internalType": "string",
          "name": "_location",
          "type": "string"
        },
        {
          "internalType": "uint256",
          "name": "_date",
          "type": "uint256"
        }
      ],
      "name": "generateChallan",
      "outputs": [],
      "stateMutability": "nonpayable",
      "type": "function"
    },
    {
      "inputs": [
        {
          "internalType": "uint256",
          "name": "_id",
          "type": "uint256"
        }
      ],
      "name": "getChallan",
      "outputs": [
        {
          "internalType": "uint256",
          "name": "id",
          "type": "uint256"
        },
        {
          "internalType": "address",
          "name": "violator",
          "type": "address"
        },
        {
          "internalType": "string",
          "name": "violatorCnic",
          "type": "string"
        },
        {
          "internalType": "string",
          "name": "violatorName",
          "type": "string"
        },
        {
          "internalType": "uint256",
          "name": "wardenId",
          "type": "uint256"
        },
        {
          "internalType": "string",
          "name": "violationDetails",
          "type": "string"
        },
        {
          "internalType": "string",
          "name": "location",
          "type": "string"
        },
        {
          "internalType": "uint256",
          "name": "date",
          "type": "uint256"
        },
        {
          "internalType": "uint256",
          "name": "fineAmount",
          "type": "uint256"
        },
        {
          "internalType": "bool",
          "name": "isTerminated",
          "type": "bool"
        }
      ],
      "stateMutability": "view",
      "type": "function",
      "constant": true
    },
    {
      "inputs": [
        {
          "internalType": "uint256",
          "name": "_id",
          "type": "uint256"
        },
        {
          "internalType": "string",
          "name": "_violationDetails",
          "type": "string"
        }
      ],
      "name": "updateChallan",
      "outputs": [],
      "stateMutability": "nonpayable",
      "type": "function"
    },
    {
      "inputs": [
        {
          "internalType": "uint256",
          "name": "_id",
          "type": "uint256"
        }
      ],
      "name": "terminateChallan",
      "outputs": [],
      "stateMutability": "nonpayable",
      "type": "function"
    }
  ],
  "bytecode": "0x6080806040523461007457602881675370656564696e6760c01b6101f4935260026008820152205560c86027604051665061726b696e6760c81b81526002600782015220556064602b6040516a139bc814d9585d18995b1d60aa1b81526002600b8201522055604051611097908161007a8239f35b600080fdfe6080604052600436101561001257600080fd5b60003560e01c80635146b42f14610c3e57806396ab4bab14610be25780639c1cfb6114610b4a5780639e53c9db146103dd578063c0dcdd8914610125578063e4f2266d146101075763fef88e971461006957600080fd5b3461010257602036600319011261010257600435801515806100f6575b61008f9061101c565b60001981018181116100e0577fd4c7402b4f900bcb67a96ed6052c481de7c7015122b904145ad8dd766e6c3d4e9160096100ca602093610ea9565b5001805460ff19166001179055604051908152a1005b634e487b7160e01b600052601160045260246000fd5b50600154811115610086565b600080fd5b34610102576000366003190112610102576020600154604051908152f35b34610102576040366003190112610102576004356001600160401b0360243581811161010257610159903690600401610e53565b821515806103d1575b61016b9061101c565b600019918383018481116100e05761018290610ea9565b509060ff60098301541661037857604051938351916101c06020968781818901966101ae81838a610d4e565b81016002815203019020541515610fd7565b60058401918551918211610362576101d88354610ef7565b601f811161031c575b5086601f831160011461028757610271947fd88cd3fc9322ccf50df7dec6797866a2d3b8f4c45b92303b1a2c61dc1da54330999794846008989561024a958c9560009261027c575b508260011b9260031b1c19161790555b604051809381928751928391610d4e565b81016002815203019020549384910155606060405195869586528501526060840190610d71565b9060408301520390a1005b89015191508e610229565b90601f1983169184600052886000209260005b81811061030557509460018561024a958c956102719a957fd88cd3fc9322ccf50df7dec6797866a2d3b8f4c45b92303b1a2c61dc1da543309f9d9a9960089d9a106102ed575b505050811b019055610239565b8a01519060f88460031b161c191690558d80806102e0565b91938a60018192878d01518155019501920161029a565b8360005287600020601f840160051c810191898510610358575b601f0160051c01905b81811061034c57506101e1565b6000815560010161033f565b9091508190610336565b634e487b7160e01b600052604160045260246000fd5b60405162461bcd60e51b815260206004820152602b60248201527f4368616c6c616e206973207465726d696e6174656420616e642063616e6e6f7460448201526a081899481d5c19185d195960aa1b6064820152608490fd5b50600154831115610162565b346101025760e0366003190112610102576004356001600160a01b0381168103610102576024356001600160401b03811161010257610420903690600401610e53565b906044356001600160401b03811161010257610440903690600401610e53565b916084356001600160401b03811161010257610460903690600401610e53565b9260a4356001600160401b03811161010257610480903690600401610e53565b936040519161049d825193602081818601966101ae81838a610d4e565b6001549260001984146100e05760206104c89160018601600155604051809381928751928391610d4e565b8101600281520301902054926001604051916104e383610e16565b01815260018060a01b038616602082015284604082015281606082015260643560808201528260a08201528660c082015260c43560e0820152836101008201526000610120820152600054680100000000000000008110156103625780600161054f9201600055610ea9565b610b3457815181556001810160018060a01b036020840151166bffffffffffffffffffffffff60a01b82541617905560408201518051906001600160401b0382116103625781906105a36002850154610ef7565b601f8111610ae1575b50602090601f8311600114610a6f57600092610a64575b50508160011b916000199060031b1c19161760028201555b60608201518051906001600160401b0382116103625781906106006003850154610ef7565b601f8111610a11575b50602090601f831160011461099f57600092610994575b50508160011b916000199060031b1c19161760038201555b6080820151600482015560a08201518051906001600160401b0382116103625781906106676005850154610ef7565b601f8111610941575b50602090601f83116001146108cf576000926108c4575b50508160011b916000199060031b1c19161760058201555b60c08201518051906001600160401b038211610362576106c26006840154610ef7565b601f811161087d575b50602090601f83116001146107d9579361012060096107ba989585610796967fe31b7efdd0792b6da006809c74bd6df65523ec5940fbb4ec8ac9337bf99985339f9a966107ac9a6000926107ce575b50508160011b916000199060031b1c19161760068201555b60e08401516007820155610100840151600882015501910151151560ff80198354169116179055610788600154986040519a8b9a8b5260018060a01b031660208b015261012060408b01526101208a0190610d71565b9088820360608a0152610d71565b90606435608088015286820360a0880152610d71565b9084820360c0860152610d71565b9060c43560e08401526101008301520390a1005b01519050388061071a565b906006840160005260206000209160005b601f1985168110610865575060096107ba98956001867fe31b7efdd0792b6da006809c74bd6df65523ec5940fbb4ec8ac9337bf99985339f9a966107ac9a96610120966107969a601f1981161061084c575b505050811b016006820155610732565b015160001960f88460031b161c1916905538808061083c565b919260206001819286850151815501940192016107ea565b600684016000526020600020601f840160051c8101602085106108bd575b601f830160051c820181106108b15750506106cb565b6000815560010161089b565b508061089b565b015190508a80610687565b9250600584016000526020600020906000935b601f1984168510610926576001945083601f1981161061090d575b505050811b01600582015561069f565b015160001960f88460031b161c191690558a80806108fd565b818101518355602094850194600190930192909101906108e2565b909150600584016000526020600020601f840160051c81016020851061098d575b90849392915b601f830160051c8201811061097e575050610670565b60008155859450600101610968565b5080610962565b015190508a80610620565b9250600384016000526020600020906000935b601f19841685106109f6576001945083601f198116106109dd575b505050811b016003820155610638565b015160001960f88460031b161c191690558a80806109cd565b818101518355602094850194600190930192909101906109b2565b909150600384016000526020600020601f840160051c810160208510610a5d575b90849392915b601f830160051c82018110610a4e575050610609565b60008155859450600101610a38565b5080610a32565b015190508a806105c3565b9250600284016000526020600020906000935b601f1984168510610ac6576001945083601f19811610610aad575b505050811b0160028201556105db565b015160001960f88460031b161c191690558a8080610a9d565b81810151835560209485019460019093019290910190610a82565b909150600284016000526020600020601f840160051c810160208510610b2d575b90849392915b601f830160051c82018110610b1e5750506105ac565b60008155859450600101610b08565b5080610b02565b634e487b7160e01b600052600060045260246000fd5b346101025760203660031901126101025760043560005481101561010257610b7190610ea9565b50805460018201546001600160a01b031691610bde90610b9360028201610f31565b90610ba060038201610f31565b6004820154610bb160058401610f31565b610bbd60068501610f31565b9160078501549360ff6009600888015497015416966040519a8b9a8b610d96565b0390f35b34610102576020366003190112610102576004356001600160401b03811161010257610c2b6020610c1881933690600401610e53565b8160405193828580945193849201610d4e565b8101600281520301902054604051908152f35b346101025760203660031901126101025760043580151580610d42575b610c649061101c565b60001981019081116100e057610c7990610ea9565b5060405190610c8782610e16565b80548252610bde60018060a01b0392836001840154169260208201938452610cb160028201610f31565b9460408301958652610cc560038301610f31565b6060840190815260048301549060808501918252610ce560058501610f31565b60a08601908152610cf860068601610f31565b928360c08801526007860154948560e089015260ff6009600889015498896101008c015201541615159788610120820152519951169951925190519151926040519a8b9a8b610d96565b50600154811115610c5b565b60005b838110610d615750506000910152565b8181015183820152602001610d51565b90602091610d8a81518092818552858086019101610d4e565b601f01601f1916010190565b989590610120989b9a9794610dd4610df5958c6020610e039a97610de296835260018060a01b031691015260408d61014091829101528d0190610d71565b908b820360608d0152610d71565b9160808a015288820360a08a0152610d71565b9086820360c0880152610d71565b9560e08501526101008401521515910152565b61014081019081106001600160401b0382111761036257604052565b90601f801991011681019081106001600160401b0382111761036257604052565b81601f82011215610102578035906001600160401b0382116103625760405192610e87601f8401601f191660200185610e32565b8284526020838301011161010257816000926020809301838601378301015290565b906000918254811015610ee357600a90838052027f290decd9548b62a8d60345a988386fc84ba6bc95484008f6362f93160ef3e563019190565b634e487b7160e01b83526032600452602483fd5b90600182811c92168015610f27575b6020831014610f1157565b634e487b7160e01b600052602260045260246000fd5b91607f1691610f06565b9060405191826000825492610f4584610ef7565b908184526001948581169081600014610fb45750600114610f71575b5050610f6f92500383610e32565b565b9093915060005260209081600020936000915b818310610f9c575050610f6f93508201013880610f61565b85548884018501529485019487945091830191610f84565b915050610f6f94506020925060ff191682840152151560051b8201013880610f61565b15610fde57565b60405162461bcd60e51b8152602060048201526016602482015275496e76616c69642076696f6c6174696f6e207479706560501b6044820152606490fd5b1561102357565b60405162461bcd60e51b815260206004820152601660248201527510da185b1b185b88191bd95cc81b9bdd08195e1a5cdd60521b6044820152606490fdfea264697066735822122050b07bb3f02bdd9c160ef12bb70c02c1eae22ac987ec2d865131ef59c5df5efc64736f6c63430008130033",
  "immutableReferences": {},
  "source": "// SPDX-License-Identifier: MIT\r\npragma solidity ^0.8.0;\r\n\r\ncontract violation {\r\n    // Struct to store the details of a challan\r\n    struct Challan {\r\n        uint256 id;\r\n        address violator;\r\n        string violatorCnic;     // CNIC of the violator\r\n        string violatorName;     // Name of the violator\r\n        uint256 wardenId;        // ID of the warden issuing the challan\r\n        string violationDetails; // Details of the violation\r\n        string location;         // Location where violation occurred\r\n        uint256 date;            // Timestamp of the violation\r\n        uint256 fineAmount;      // Fine amount for the violation\r\n        bool isTerminated;       // Status if challan is terminated\r\n    }\r\n\r\n    // Array to store all challans\r\n    Challan[] public challans;\r\n    // Counter for challan IDs\r\n    uint public challanCounter;\r\n\r\n    // Pre-defined violation details and their corresponding fines\r\n    mapping(string => uint256) public violationFines;\r\n\r\n    // Event to emit when a new challan is generated\r\n    event ChallanGenerated(\r\n        uint id,\r\n        address violator,\r\n        string violatorCnic,\r\n        string violatorName,\r\n        uint256 wardenId,\r\n        string violationDetails,\r\n        string location,\r\n        uint256 date,\r\n        uint fineAmount\r\n    );\r\n    \r\n    // Event to emit when a challan is updated\r\n    event ChallanUpdated(uint id, string violationDetails, uint fineAmount);\r\n    \r\n    // Event to emit when a challan is terminated\r\n    event ChallanTerminated(uint id);\r\n\r\n    // Constructor to initialize violation details with fines\r\n    constructor() {\r\n        violationFines[\"Speeding\"] = 500;\r\n        violationFines[\"Parking\"] = 200;\r\n        violationFines[\"No Seatbelt\"] = 100;\r\n        // Add more predefined violations and fines as needed\r\n    }\r\n\r\n    // Function to generate a new challan\r\n    function generateChallan(\r\n        address _violator,\r\n        string memory _violatorCnic,\r\n        string memory _violatorName,\r\n        uint256 _wardenId,\r\n        string memory _violationDetails,\r\n        string memory _location,\r\n        uint256 _date\r\n    ) public {\r\n        // Ensure the violation type exists in the pre-defined list\r\n        require(violationFines[_violationDetails] > 0, \"Invalid violation type\");\r\n\r\n        challanCounter++;\r\n        uint fineAmount = violationFines[_violationDetails];  // Fetch fine based on violation type\r\n\r\n        Challan memory newChallan = Challan({\r\n            id: challanCounter,\r\n            violator: _violator,\r\n            violatorCnic: _violatorCnic,\r\n            violatorName: _violatorName,\r\n            wardenId: _wardenId,\r\n            violationDetails: _violationDetails,\r\n            location: _location,\r\n            date: _date,\r\n            fineAmount: fineAmount,\r\n            isTerminated: false\r\n        });\r\n        challans.push(newChallan);  // Add the new challan to the array\r\n\r\n        emit ChallanGenerated(\r\n            challanCounter,\r\n            _violator,\r\n            _violatorCnic,\r\n            _violatorName,\r\n            _wardenId,\r\n            _violationDetails,\r\n            _location,\r\n            _date,\r\n            fineAmount\r\n        );\r\n    }\r\n\r\n    // Function to get a challan's details\r\n    function getChallan(\r\n        uint _id\r\n    )\r\n        external\r\n        view\r\n        returns (\r\n            uint id,\r\n            address violator,\r\n            string memory violatorCnic,\r\n            string memory violatorName,\r\n            uint256 wardenId,\r\n            string memory violationDetails,\r\n            string memory location,\r\n            uint256 date,\r\n            uint fineAmount,\r\n            bool isTerminated\r\n        )\r\n    {\r\n        // Ensure the challan exists\r\n        require(_id > 0 && _id <= challanCounter, \"Challan does not exist\");\r\n\r\n        // Fetch the challan from the array\r\n        Challan memory challan = challans[_id - 1];\r\n\r\n        // Return the challan details\r\n        return (\r\n            challan.id,\r\n            challan.violator,\r\n            challan.violatorCnic,\r\n            challan.violatorName,\r\n            challan.wardenId,\r\n            challan.violationDetails,\r\n            challan.location,\r\n            challan.date,\r\n            challan.fineAmount,\r\n            challan.isTerminated\r\n        );\r\n    }\r\n\r\n    // Function to update a challan's details\r\n    function updateChallan(\r\n        uint _id,\r\n        string memory _violationDetails\r\n    ) public {\r\n        // Ensure the challan exists\r\n        require(_id > 0 && _id <= challanCounter, \"Challan does not exist\");\r\n\r\n        // Fetch the challan from the array\r\n        Challan storage challan = challans[_id - 1];\r\n\r\n        // Ensure the challan is not terminated\r\n        require(!challan.isTerminated, \"Challan is terminated and cannot be updated\");\r\n\r\n        // Ensure the new violation type exists in the pre-defined list\r\n        require(violationFines[_violationDetails] > 0, \"Invalid violation type\");\r\n\r\n        // Update the challan details\r\n        challan.violationDetails = _violationDetails;\r\n        challan.fineAmount = violationFines[_violationDetails];\r\n\r\n        emit ChallanUpdated(_id, _violationDetails, challan.fineAmount);\r\n    }\r\n\r\n    // Function to terminate a challan\r\n    function terminateChallan(uint _id) public {\r\n        // Ensure the challan exists\r\n        require(_id > 0 && _id <= challanCounter, \"Challan does not exist\");\r\n\r\n        // Fetch the challan from the array\r\n        Challan storage challan = challans[_id - 1];\r\n\r\n        // Terminate the challan\r\n        challan.isTerminated = true;\r\n\r\n        emit ChallanTerminated(_id);\r\n    }\r\n}",
  "sourcePath": "D:\\naufil\\FineFlow-FYP\\Contracts\\contracts\\violation.sol",
  "compiler": {
    "name": "solc",
    "version": "0.8.19+commit.7dd6d404.Emscripten.clang"
  },
  "schemaVersion": "3.4.16",
  "updatedAt": "2024-09-28T15:43:11.046Z",
  "networkType": "ethereum",
  "devdoc": {
    "kind": "dev",
    "methods": {},
    "version": 1
  },
  "userdoc": {
    "kind": "user",
    "methods": {},
    "version": 1
  }
}